{"abi":[{"inputs":[{"internalType":"address","name":"_priceFeed","type":"address"}],"stateMutability":"nonpayable","type":"constructor","name":"constructor"},{"inputs":[],"name":"EndIssue","outputs":[],"stateMutability":"nonpayable","type":"function"},{"inputs":[],"name":"Ijaara","outputs":[{"internalType":"address payable","name":"","type":"address"}],"stateMutability":"view","type":"function"},{"inputs":[],"name":"IssueSukuk","outputs":[],"stateMutability":"nonpayable","type":"function"},{"inputs":[{"internalType":"address","name":"","type":"address"}],"name":"addressToAmountDeposited","outputs":[{"internalType":"uint256","name":"","type":"uint256"}],"stateMutability":"view","type":"function"},{"inputs":[{"internalType":"address","name":"","type":"address"}],"name":"addressToAmountFunded","outputs":[{"internalType":"uint256","name":"","type":"uint256"}],"stateMutability":"view","type":"function"},{"inputs":[],"name":"admin","outputs":[{"internalType":"address","name":"","type":"address"}],"stateMutability":"view","type":"function"},{"inputs":[],"name":"deposit","outputs":[],"stateMutability":"payable","type":"function"},{"inputs":[],"name":"get","outputs":[{"internalType":"enum Sukuk.SUKUK_STATE","name":"","type":"uint8"}],"stateMutability":"view","type":"function"},{"inputs":[],"name":"getAdminAddress","outputs":[{"internalType":"address","name":"","type":"address"}],"stateMutability":"view","type":"function"},{"inputs":[],"name":"getBalance","outputs":[{"internalType":"uint256","name":"balance","type":"uint256"}],"stateMutability":"view","type":"function"},{"inputs":[],"name":"getIjaaraAddress","outputs":[{"internalType":"address","name":"","type":"address"}],"stateMutability":"view","type":"function"},{"inputs":[{"internalType":"uint256","name":"","type":"uint256"}],"name":"investors","outputs":[{"internalType":"address payable","name":"","type":"address"}],"stateMutability":"view","type":"function"},{"inputs":[],"name":"priceFeed","outputs":[{"internalType":"contract AggregatorV3Interface","name":"","type":"address"}],"stateMutability":"view","type":"function"},{"inputs":[{"internalType":"uint256","name":"_number_of_sukuk","type":"uint256"}],"name":"purchase_suk","outputs":[],"stateMutability":"payable","type":"function"},{"inputs":[{"internalType":"address payable","name":"_Ijaara","type":"address"}],"name":"setIjaara","outputs":[],"stateMutability":"nonpayable","type":"function"},{"inputs":[],"name":"startRedeem","outputs":[],"stateMutability":"nonpayable","type":"function"},{"inputs":[],"name":"startSukuk","outputs":[],"stateMutability":"nonpayable","type":"function"},{"inputs":[],"name":"sukuk_state","outputs":[{"internalType":"enum Sukuk.SUKUK_STATE","name":"","type":"uint8"}],"stateMutability":"view","type":"function"},{"inputs":[],"name":"withdraw","outputs":[],"stateMutability":"payable","type":"function"}],"bytecode":"608060405234801561001057600080fd5b506040516108103803806108108339818101604052602081101561003357600080fd5b5051600480546001600160a01b0383166001600160a01b03199182161790915560038054909116331781556005805460ff60a01b1916600160a01b8302179055505061078c806100846000396000f3fe6080604052600436106101145760003560e01c80637ce2a070116100a0578063b2e6b91211610064578063b2e6b912146102df578063bf859271146102f4578063ce00d81314610327578063d0e30db01461033c578063f851a4401461034457610114565b80637ce2a070146102505780637e72ee671461026d57806384b560f3146102a05780638a2fee73146102b55780639e3578d7146102ca57610114565b80633fe8804c116100e75780633fe8804c146101ae5780633feb5f2b146101e757806345bcad9a146102115780636d4ce63c14610226578063741bef1a1461023b57610114565b806312065fe014610119578063340d02fe146101405780633ccfd60b146101715780633e47d6f31461017b575b600080fd5b34801561012557600080fd5b5061012e610359565b60408051918252519081900360200190f35b34801561014c57600080fd5b5061015561035d565b604080516001600160a01b039092168252519081900360200190f35b61017961036c565b005b34801561018757600080fd5b5061012e6004803603602081101561019e57600080fd5b50356001600160a01b03166103b2565b3480156101ba57600080fd5b506101c36103c4565b604051808260068111156101d357fe5b60ff16815260200191505060405180910390f35b3480156101f357600080fd5b506101556004803603602081101561020a57600080fd5b50356103d4565b34801561021d57600080fd5b506101796103fb565b34801561023257600080fd5b506101c3610496565b34801561024757600080fd5b506101556104a6565b6101796004803603602081101561026657600080fd5b50356104b5565b34801561027957600080fd5b5061012e6004803603602081101561029057600080fd5b50356001600160a01b031661050c565b3480156102ac57600080fd5b5061015561051e565b3480156102c157600080fd5b5061017961052d565b3480156102d657600080fd5b506101796105b3565b3480156102eb57600080fd5b50610155610639565b34801561030057600080fd5b506101796004803603602081101561031757600080fd5b50356001600160a01b0316610648565b34801561033357600080fd5b50610179610681565b610179610719565b34801561035057600080fd5b50610155610747565b4790565b6005546001600160a01b031681565b6005546001600160a01b0316331461038357600080fd5b60405133904780156108fc02916000818181858888f193505050501580156103af573d6000803e3d6000fd5b50565b60006020819052908152604090205481565b600554600160a01b900460ff1681565b600281815481106103e157fe5b6000918252602090912001546001600160a01b0316905081565b6003546001600160a01b0316331461041257600080fd5b6003600554600160a01b900460ff16600681111561042c57fe5b14610479576040805162461bcd60e51b815260206004820152601860248201527710d85b89dd081a5cdcdd59481b995dc81cdd5adcc81e595d60421b604482015290519081900360640190fd5b600580546001919060ff60a01b1916600160a01b835b0217905550565b600554600160a01b900460ff1690565b6004546001600160a01b031681565b503360008181526020819052604081208054340190556002805460018101825591527f405787fa12a823e0f2b7631cc41b3ba8828b3321ca811111fa75cd3aa3bb5ace0180546001600160a01b0319169091179055565b60016020526000908152604090205481565b6005546001600160a01b031690565b6003546001600160a01b0316331461054457600080fd5b6002600554600160a01b900460ff16600681111561055e57fe5b14610599576040805162461bcd60e51b8152602060048083019190915260248201526315195cdd60e21b604482015290519081900360640190fd5b600580546000919060ff60a01b1916600160a01b8361048f565b6003546001600160a01b031633146105ca57600080fd5b6000600554600160a01b900460ff1660068111156105e457fe5b1461061f576040805162461bcd60e51b8152602060048083019190915260248201526315195cdd60e21b604482015290519081900360640190fd5b600580546004919060ff60a01b1916600160a01b8361048f565b6003546001600160a01b031690565b6003546001600160a01b0316331461065f57600080fd5b600580546001600160a01b0319166001600160a01b0392909216919091179055565b6003546001600160a01b0316331461069857600080fd5b6001600554600160a01b900460ff1660068111156106b257fe5b146106ff576040805162461bcd60e51b815260206004820152601860248201527710d85b89dd081a5cdcdd59481b995dc81cdd5adcc81e595d60421b604482015290519081900360640190fd5b600580546002919060ff60a01b1916600160a01b8361048f565b6005546001600160a01b0316331461073057600080fd5b336000908152600160205260409020805434019055565b6003546001600160a01b03168156fea26469706673582212206664cf19cd59b49bb76a3b6d6fe3644c138a57f61c658a56b10996720088ce2764736f6c63430006000033","bytecodeSha1":"62c46b52ad359ff016396b87a659f331e4031acd","compiler":{"evm_version":"istanbul","optimizer":{"enabled":true,"runs":200},"version":"0.6.0+commit.26b70077"},"contractName":"Sukuk","language":"Solidity","natspec":{"methods":{}},"opcodes":"PUSH1 0x80 PUSH1 0x40 MSTORE PUSH1 0x4 CALLDATASIZE LT PUSH2 0x114 JUMPI PUSH1 0x0 CALLDATALOAD PUSH1 0xE0 SHR DUP1 PUSH4 0x7CE2A070 GT PUSH2 0xA0 JUMPI DUP1 PUSH4 0xB2E6B912 GT PUSH2 0x64 JUMPI DUP1 PUSH4 0xB2E6B912 EQ PUSH2 0x2DF JUMPI DUP1 PUSH4 0xBF859271 EQ PUSH2 0x2F4 JUMPI DUP1 PUSH4 0xCE00D813 EQ PUSH2 0x327 JUMPI DUP1 PUSH4 0xD0E30DB0 EQ PUSH2 0x33C JUMPI DUP1 PUSH4 0xF851A440 EQ PUSH2 0x344 JUMPI PUSH2 0x114 JUMP JUMPDEST DUP1 PUSH4 0x7CE2A070 EQ PUSH2 0x250 JUMPI DUP1 PUSH4 0x7E72EE67 EQ PUSH2 0x26D JUMPI DUP1 PUSH4 0x84B560F3 EQ PUSH2 0x2A0 JUMPI DUP1 PUSH4 0x8A2FEE73 EQ PUSH2 0x2B5 JUMPI DUP1 PUSH4 0x9E3578D7 EQ PUSH2 0x2CA JUMPI PUSH2 0x114 JUMP JUMPDEST DUP1 PUSH4 0x3FE8804C GT PUSH2 0xE7 JUMPI DUP1 PUSH4 0x3FE8804C EQ PUSH2 0x1AE JUMPI DUP1 PUSH4 0x3FEB5F2B EQ PUSH2 0x1E7 JUMPI DUP1 PUSH4 0x45BCAD9A EQ PUSH2 0x211 JUMPI DUP1 PUSH4 0x6D4CE63C EQ PUSH2 0x226 JUMPI DUP1 PUSH4 0x741BEF1A EQ PUSH2 0x23B JUMPI PUSH2 0x114 JUMP JUMPDEST DUP1 PUSH4 0x12065FE0 EQ PUSH2 0x119 JUMPI DUP1 PUSH4 0x340D02FE EQ PUSH2 0x140 JUMPI DUP1 PUSH4 0x3CCFD60B EQ PUSH2 0x171 JUMPI DUP1 PUSH4 0x3E47D6F3 EQ PUSH2 0x17B JUMPI JUMPDEST PUSH1 0x0 DUP1 REVERT JUMPDEST CALLVALUE DUP1 ISZERO PUSH2 0x125 JUMPI PUSH1 0x0 DUP1 REVERT JUMPDEST POP PUSH2 0x12E PUSH2 0x359 JUMP JUMPDEST PUSH1 0x40 DUP1 MLOAD SWAP2 DUP3 MSTORE MLOAD SWAP1 DUP2 SWAP1 SUB PUSH1 0x20 ADD SWAP1 RETURN JUMPDEST CALLVALUE DUP1 ISZERO PUSH2 0x14C JUMPI PUSH1 0x0 DUP1 REVERT JUMPDEST POP PUSH2 0x155 PUSH2 0x35D JUMP JUMPDEST PUSH1 0x40 DUP1 MLOAD PUSH1 0x1 PUSH1 0x1 PUSH1 0xA0 SHL SUB SWAP1 SWAP3 AND DUP3 MSTORE MLOAD SWAP1 DUP2 SWAP1 SUB PUSH1 0x20 ADD SWAP1 RETURN JUMPDEST PUSH2 0x179 PUSH2 0x36C JUMP JUMPDEST STOP JUMPDEST CALLVALUE DUP1 ISZERO PUSH2 0x187 JUMPI PUSH1 0x0 DUP1 REVERT JUMPDEST POP PUSH2 0x12E PUSH1 0x4 DUP1 CALLDATASIZE SUB PUSH1 0x20 DUP2 LT ISZERO PUSH2 0x19E JUMPI PUSH1 0x0 DUP1 REVERT JUMPDEST POP CALLDATALOAD PUSH1 0x1 PUSH1 0x1 PUSH1 0xA0 SHL SUB AND PUSH2 0x3B2 JUMP JUMPDEST CALLVALUE DUP1 ISZERO PUSH2 0x1BA JUMPI PUSH1 0x0 DUP1 REVERT JUMPDEST POP PUSH2 0x1C3 PUSH2 0x3C4 JUMP JUMPDEST PUSH1 0x40 MLOAD DUP1 DUP3 PUSH1 0x6 DUP2 GT ISZERO PUSH2 0x1D3 JUMPI INVALID JUMPDEST PUSH1 0xFF AND DUP2 MSTORE PUSH1 0x20 ADD SWAP2 POP POP PUSH1 0x40 MLOAD DUP1 SWAP2 SUB SWAP1 RETURN JUMPDEST CALLVALUE DUP1 ISZERO PUSH2 0x1F3 JUMPI PUSH1 0x0 DUP1 REVERT JUMPDEST POP PUSH2 0x155 PUSH1 0x4 DUP1 CALLDATASIZE SUB PUSH1 0x20 DUP2 LT ISZERO PUSH2 0x20A JUMPI PUSH1 0x0 DUP1 REVERT JUMPDEST POP CALLDATALOAD PUSH2 0x3D4 JUMP JUMPDEST CALLVALUE DUP1 ISZERO PUSH2 0x21D JUMPI PUSH1 0x0 DUP1 REVERT JUMPDEST POP PUSH2 0x179 PUSH2 0x3FB JUMP JUMPDEST CALLVALUE DUP1 ISZERO PUSH2 0x232 JUMPI PUSH1 0x0 DUP1 REVERT JUMPDEST POP PUSH2 0x1C3 PUSH2 0x496 JUMP JUMPDEST CALLVALUE DUP1 ISZERO PUSH2 0x247 JUMPI PUSH1 0x0 DUP1 REVERT JUMPDEST POP PUSH2 0x155 PUSH2 0x4A6 JUMP JUMPDEST PUSH2 0x179 PUSH1 0x4 DUP1 CALLDATASIZE SUB PUSH1 0x20 DUP2 LT ISZERO PUSH2 0x266 JUMPI PUSH1 0x0 DUP1 REVERT JUMPDEST POP CALLDATALOAD PUSH2 0x4B5 JUMP JUMPDEST CALLVALUE DUP1 ISZERO PUSH2 0x279 JUMPI PUSH1 0x0 DUP1 REVERT JUMPDEST POP PUSH2 0x12E PUSH1 0x4 DUP1 CALLDATASIZE SUB PUSH1 0x20 DUP2 LT ISZERO PUSH2 0x290 JUMPI PUSH1 0x0 DUP1 REVERT JUMPDEST POP CALLDATALOAD PUSH1 0x1 PUSH1 0x1 PUSH1 0xA0 SHL SUB AND PUSH2 0x50C JUMP JUMPDEST CALLVALUE DUP1 ISZERO PUSH2 0x2AC JUMPI PUSH1 0x0 DUP1 REVERT JUMPDEST POP PUSH2 0x155 PUSH2 0x51E JUMP JUMPDEST CALLVALUE DUP1 ISZERO PUSH2 0x2C1 JUMPI PUSH1 0x0 DUP1 REVERT JUMPDEST POP PUSH2 0x179 PUSH2 0x52D JUMP JUMPDEST CALLVALUE DUP1 ISZERO PUSH2 0x2D6 JUMPI PUSH1 0x0 DUP1 REVERT JUMPDEST POP PUSH2 0x179 PUSH2 0x5B3 JUMP JUMPDEST CALLVALUE DUP1 ISZERO PUSH2 0x2EB JUMPI PUSH1 0x0 DUP1 REVERT JUMPDEST POP PUSH2 0x155 PUSH2 0x639 JUMP JUMPDEST CALLVALUE DUP1 ISZERO PUSH2 0x300 JUMPI PUSH1 0x0 DUP1 REVERT JUMPDEST POP PUSH2 0x179 PUSH1 0x4 DUP1 CALLDATASIZE SUB PUSH1 0x20 DUP2 LT ISZERO PUSH2 0x317 JUMPI PUSH1 0x0 DUP1 REVERT JUMPDEST POP CALLDATALOAD PUSH1 0x1 PUSH1 0x1 PUSH1 0xA0 SHL SUB AND PUSH2 0x648 JUMP JUMPDEST CALLVALUE DUP1 ISZERO PUSH2 0x333 JUMPI PUSH1 0x0 DUP1 REVERT JUMPDEST POP PUSH2 0x179 PUSH2 0x681 JUMP JUMPDEST PUSH2 0x179 PUSH2 0x719 JUMP JUMPDEST CALLVALUE DUP1 ISZERO PUSH2 0x350 JUMPI PUSH1 0x0 DUP1 REVERT JUMPDEST POP PUSH2 0x155 PUSH2 0x747 JUMP JUMPDEST SELFBALANCE SWAP1 JUMP JUMPDEST PUSH1 0x5 SLOAD PUSH1 0x1 PUSH1 0x1 PUSH1 0xA0 SHL SUB AND DUP2 JUMP JUMPDEST PUSH1 0x5 SLOAD PUSH1 0x1 PUSH1 0x1 PUSH1 0xA0 SHL SUB AND CALLER EQ PUSH2 0x383 JUMPI PUSH1 0x0 DUP1 REVERT JUMPDEST PUSH1 0x40 MLOAD CALLER SWAP1 SELFBALANCE DUP1 ISZERO PUSH2 0x8FC MUL SWAP2 PUSH1 0x0 DUP2 DUP2 DUP2 DUP6 DUP9 DUP9 CALL SWAP4 POP POP POP POP ISZERO DUP1 ISZERO PUSH2 0x3AF JUMPI RETURNDATASIZE PUSH1 0x0 DUP1 RETURNDATACOPY RETURNDATASIZE PUSH1 0x0 REVERT JUMPDEST POP JUMP JUMPDEST PUSH1 0x0 PUSH1 0x20 DUP2 SWAP1 MSTORE SWAP1 DUP2 MSTORE PUSH1 0x40 SWAP1 KECCAK256 SLOAD DUP2 JUMP JUMPDEST PUSH1 0x5 SLOAD PUSH1 0x1 PUSH1 0xA0 SHL SWAP1 DIV PUSH1 0xFF AND DUP2 JUMP JUMPDEST PUSH1 0x2 DUP2 DUP2 SLOAD DUP2 LT PUSH2 0x3E1 JUMPI INVALID JUMPDEST PUSH1 0x0 SWAP2 DUP3 MSTORE PUSH1 0x20 SWAP1 SWAP2 KECCAK256 ADD SLOAD PUSH1 0x1 PUSH1 0x1 PUSH1 0xA0 SHL SUB AND SWAP1 POP DUP2 JUMP JUMPDEST PUSH1 0x3 SLOAD PUSH1 0x1 PUSH1 0x1 PUSH1 0xA0 SHL SUB AND CALLER EQ PUSH2 0x412 JUMPI PUSH1 0x0 DUP1 REVERT JUMPDEST PUSH1 0x3 PUSH1 0x5 SLOAD PUSH1 0x1 PUSH1 0xA0 SHL SWAP1 DIV PUSH1 0xFF AND PUSH1 0x6 DUP2 GT ISZERO PUSH2 0x42C JUMPI INVALID JUMPDEST EQ PUSH2 0x479 JUMPI PUSH1 0x40 DUP1 MLOAD PUSH3 0x461BCD PUSH1 0xE5 SHL DUP2 MSTORE PUSH1 0x20 PUSH1 0x4 DUP3 ADD MSTORE PUSH1 0x18 PUSH1 0x24 DUP3 ADD MSTORE PUSH24 0x10D85B89DD081A5CDCDD59481B995DC81CDD5ADCC81E595D PUSH1 0x42 SHL PUSH1 0x44 DUP3 ADD MSTORE SWAP1 MLOAD SWAP1 DUP2 SWAP1 SUB PUSH1 0x64 ADD SWAP1 REVERT JUMPDEST PUSH1 0x5 DUP1 SLOAD PUSH1 0x1 SWAP2 SWAP1 PUSH1 0xFF PUSH1 0xA0 SHL NOT AND PUSH1 0x1 PUSH1 0xA0 SHL DUP4 JUMPDEST MUL OR SWAP1 SSTORE POP JUMP JUMPDEST PUSH1 0x5 SLOAD PUSH1 0x1 PUSH1 0xA0 SHL SWAP1 DIV PUSH1 0xFF AND SWAP1 JUMP JUMPDEST PUSH1 0x4 SLOAD PUSH1 0x1 PUSH1 0x1 PUSH1 0xA0 SHL SUB AND DUP2 JUMP JUMPDEST POP CALLER PUSH1 0x0 DUP2 DUP2 MSTORE PUSH1 0x20 DUP2 SWAP1 MSTORE PUSH1 0x40 DUP2 KECCAK256 DUP1 SLOAD CALLVALUE ADD SWAP1 SSTORE PUSH1 0x2 DUP1 SLOAD PUSH1 0x1 DUP2 ADD DUP3 SSTORE SWAP2 MSTORE PUSH32 0x405787FA12A823E0F2B7631CC41B3BA8828B3321CA811111FA75CD3AA3BB5ACE ADD DUP1 SLOAD PUSH1 0x1 PUSH1 0x1 PUSH1 0xA0 SHL SUB NOT AND SWAP1 SWAP2 OR SWAP1 SSTORE JUMP JUMPDEST PUSH1 0x1 PUSH1 0x20 MSTORE PUSH1 0x0 SWAP1 DUP2 MSTORE PUSH1 0x40 SWAP1 KECCAK256 SLOAD DUP2 JUMP JUMPDEST PUSH1 0x5 SLOAD PUSH1 0x1 PUSH1 0x1 PUSH1 0xA0 SHL SUB AND SWAP1 JUMP JUMPDEST PUSH1 0x3 SLOAD PUSH1 0x1 PUSH1 0x1 PUSH1 0xA0 SHL SUB AND CALLER EQ PUSH2 0x544 JUMPI PUSH1 0x0 DUP1 REVERT JUMPDEST PUSH1 0x2 PUSH1 0x5 SLOAD PUSH1 0x1 PUSH1 0xA0 SHL SWAP1 DIV PUSH1 0xFF AND PUSH1 0x6 DUP2 GT ISZERO PUSH2 0x55E JUMPI INVALID JUMPDEST EQ PUSH2 0x599 JUMPI PUSH1 0x40 DUP1 MLOAD PUSH3 0x461BCD PUSH1 0xE5 SHL DUP2 MSTORE PUSH1 0x20 PUSH1 0x4 DUP1 DUP4 ADD SWAP2 SWAP1 SWAP2 MSTORE PUSH1 0x24 DUP3 ADD MSTORE PUSH4 0x15195CDD PUSH1 0xE2 SHL PUSH1 0x44 DUP3 ADD MSTORE SWAP1 MLOAD SWAP1 DUP2 SWAP1 SUB PUSH1 0x64 ADD SWAP1 REVERT JUMPDEST PUSH1 0x5 DUP1 SLOAD PUSH1 0x0 SWAP2 SWAP1 PUSH1 0xFF PUSH1 0xA0 SHL NOT AND PUSH1 0x1 PUSH1 0xA0 SHL DUP4 PUSH2 0x48F JUMP JUMPDEST PUSH1 0x3 SLOAD PUSH1 0x1 PUSH1 0x1 PUSH1 0xA0 SHL SUB AND CALLER EQ PUSH2 0x5CA JUMPI PUSH1 0x0 DUP1 REVERT JUMPDEST PUSH1 0x0 PUSH1 0x5 SLOAD PUSH1 0x1 PUSH1 0xA0 SHL SWAP1 DIV PUSH1 0xFF AND PUSH1 0x6 DUP2 GT ISZERO PUSH2 0x5E4 JUMPI INVALID JUMPDEST EQ PUSH2 0x61F JUMPI PUSH1 0x40 DUP1 MLOAD PUSH3 0x461BCD PUSH1 0xE5 SHL DUP2 MSTORE PUSH1 0x20 PUSH1 0x4 DUP1 DUP4 ADD SWAP2 SWAP1 SWAP2 MSTORE PUSH1 0x24 DUP3 ADD MSTORE PUSH4 0x15195CDD PUSH1 0xE2 SHL PUSH1 0x44 DUP3 ADD MSTORE SWAP1 MLOAD SWAP1 DUP2 SWAP1 SUB PUSH1 0x64 ADD SWAP1 REVERT JUMPDEST PUSH1 0x5 DUP1 SLOAD PUSH1 0x4 SWAP2 SWAP1 PUSH1 0xFF PUSH1 0xA0 SHL NOT AND PUSH1 0x1 PUSH1 0xA0 SHL DUP4 PUSH2 0x48F JUMP JUMPDEST PUSH1 0x3 SLOAD PUSH1 0x1 PUSH1 0x1 PUSH1 0xA0 SHL SUB AND SWAP1 JUMP JUMPDEST PUSH1 0x3 SLOAD PUSH1 0x1 PUSH1 0x1 PUSH1 0xA0 SHL SUB AND CALLER EQ PUSH2 0x65F JUMPI PUSH1 0x0 DUP1 REVERT JUMPDEST PUSH1 0x5 DUP1 SLOAD PUSH1 0x1 PUSH1 0x1 PUSH1 0xA0 SHL SUB NOT AND PUSH1 0x1 PUSH1 0x1 PUSH1 0xA0 SHL SUB SWAP3 SWAP1 SWAP3 AND SWAP2 SWAP1 SWAP2 OR SWAP1 SSTORE JUMP JUMPDEST PUSH1 0x3 SLOAD PUSH1 0x1 PUSH1 0x1 PUSH1 0xA0 SHL SUB AND CALLER EQ PUSH2 0x698 JUMPI PUSH1 0x0 DUP1 REVERT JUMPDEST PUSH1 0x1 PUSH1 0x5 SLOAD PUSH1 0x1 PUSH1 0xA0 SHL SWAP1 DIV PUSH1 0xFF AND PUSH1 0x6 DUP2 GT ISZERO PUSH2 0x6B2 JUMPI INVALID JUMPDEST EQ PUSH2 0x6FF JUMPI PUSH1 0x40 DUP1 MLOAD PUSH3 0x461BCD PUSH1 0xE5 SHL DUP2 MSTORE PUSH1 0x20 PUSH1 0x4 DUP3 ADD MSTORE PUSH1 0x18 PUSH1 0x24 DUP3 ADD MSTORE PUSH24 0x10D85B89DD081A5CDCDD59481B995DC81CDD5ADCC81E595D PUSH1 0x42 SHL PUSH1 0x44 DUP3 ADD MSTORE SWAP1 MLOAD SWAP1 DUP2 SWAP1 SUB PUSH1 0x64 ADD SWAP1 REVERT JUMPDEST PUSH1 0x5 DUP1 SLOAD PUSH1 0x2 SWAP2 SWAP1 PUSH1 0xFF PUSH1 0xA0 SHL NOT AND PUSH1 0x1 PUSH1 0xA0 SHL DUP4 PUSH2 0x48F JUMP JUMPDEST PUSH1 0x5 SLOAD PUSH1 0x1 PUSH1 0x1 PUSH1 0xA0 SHL SUB AND CALLER EQ PUSH2 0x730 JUMPI PUSH1 0x0 DUP1 REVERT JUMPDEST CALLER PUSH1 0x0 SWAP1 DUP2 MSTORE PUSH1 0x1 PUSH1 0x20 MSTORE PUSH1 0x40 SWAP1 KECCAK256 DUP1 SLOAD CALLVALUE ADD SWAP1 SSTORE JUMP JUMPDEST PUSH1 0x3 SLOAD PUSH1 0x1 PUSH1 0x1 PUSH1 0xA0 SHL SUB AND DUP2 JUMP INVALID LOG2 PUSH5 0x6970667358 0x22 SLT KECCAK256 PUSH7 0x64CF19CD59B49B 0xB7 PUSH11 0x3B6D6FE3644C138A57F61C PUSH6 0x8A56B1099672 STOP DUP9 0xCE 0x27 PUSH5 0x736F6C6343 STOP MOD STOP STOP CALLER ","sha1":"185215d05a5524875557767ae5e83b48b36925d8","source":"// SPDX-License-Identifier: MIT\n\npragma solidity 0.6.0;\n\nimport \"@chainlink/contracts/src/v0.6/interfaces/AggregatorV3Interface.sol\";\n\n\n// This one for now to track what each investor/ I will look at the implementation later\n\n\ncontract Sukuk{\n    mapping(address => uint256) public addressToAmountFunded;\n    mapping(address => uint256) public addressToAmountDeposited;\n    address payable[] public investors;\n    address public  admin;\n    AggregatorV3Interface public priceFeed;\n    address payable public Ijaara ;\n\n    //Sukuk State\n    enum SUKUK_STATE{\n        COOLDOWN,// This state will be when the contract is in effect however it doesn't have any tasks to excute\n        OPEN,\n        ISSUE,\n        CLOSEED,\n        \n        REDEEM_PERIOD,\n        TERM_1,\n        TERM_2\n    }\n    SUKUK_STATE public sukuk_state;\n\n\n    function get() public view returns(SUKUK_STATE){\n        return sukuk_state;\n    }\n\n\n\n\n\n    //added an argument to constructor for testing\n    constructor(\n        address _priceFeed\n      ) \n    public {\n        priceFeed = AggregatorV3Interface(_priceFeed);\n        // Admin will be the contract sender for now\n        admin = msg.sender;\n        sukuk_state = SUKUK_STATE.CLOSEED;\n\n    }\n\n\n\n\n    function     startSukuk( ) public onlyAdmin{\n            require(\n            sukuk_state == SUKUK_STATE.CLOSEED,\n            \"Can't issue new suks yet\"\n        );\n\n\n\n\n\n        sukuk_state = SUKUK_STATE.OPEN;\n\n    }\n    \n\n\n\n\n    function  IssueSukuk( ) public onlyAdmin{\n        require(\n            sukuk_state == SUKUK_STATE.OPEN,\n            \"Can't issue new suks yet\"\n        );\n\n        sukuk_state = SUKUK_STATE.ISSUE;\n\n    }\n\n    function EndIssue() public onlyAdmin{\n        require(\n            sukuk_state == SUKUK_STATE.ISSUE,\n            \"Test\"\n        );\n\n        sukuk_state = SUKUK_STATE.COOLDOWN;\n    }\n\n    function startRedeem() public onlyAdmin{\n        require(\n            sukuk_state == SUKUK_STATE.COOLDOWN,\n            \"Test\"\n        );\n\n        sukuk_state = SUKUK_STATE.REDEEM_PERIOD;\n    }\n\n\n\n\n\n    \n\n    function purchase_suk(uint256 _number_of_sukuk) public payable{\n\n\n\n        // Right now it only tracks the amount and address only.\n        // Later I will need to take the number of sukuk as a factor and change how it works\n        // It should take the number of sukuk and checks if the sent amount is correct or not \n        // Not lower or higher\n        addressToAmountFunded[msg.sender] += msg.value;\n        investors.push(payable(msg.sender));\n    }\n\n\n\n\n    function setIjaara(address payable  _Ijaara ) public onlyAdmin{\n        Ijaara = _Ijaara;\n        \n    }\n\n\n\n\n\n\n\n\n    modifier onlyAdmin(){\n        require(msg.sender == admin);\n        _;\n    }\n\n    modifier onlyIjaara(){\n        require(msg.sender == Ijaara);\n        _;\n    }\n\n\n\n    function getAdminAddress( ) view public returns (address ) {\n\n        return admin;\n    }\n    function getIjaaraAddress( ) view public returns (address ) {\n        return Ijaara;\n    }\n\n    function withdraw() public payable onlyIjaara{\n        msg.sender.transfer(address(this).balance);\n\n       /* for (\n            uint256 funderIndex = 0;\n            funderIndex < investors.length;\n            funderIndex++\n        ) {\n            address funder = investors[funderIndex];\n            addressToAmountFunded[funder] = 0;\n        }\n    */\n    }\n\n    //function redeem() public payable{}\n\n    function deposit() public payable onlyIjaara{\n        addressToAmountDeposited[msg.sender] +=  msg.value;\n\n    }\n    function getBalance( ) view public returns (uint256 balance) {\n        return address(this).balance;\n        \n    }\n\n\n}","sourcePath":"contracts/Purchese.sol","type":"contract","deployment":{"address":"0x15c63D427F51e6a8A0896DcF5336D75847B4AB09","chainid":"4","blockHeight":10757629}}