{
  "abi": [
    {
      "inputs": [
        {
          "internalType": "address",
          "name": "_priceFeed",
          "type": "address"
        }
      ],
      "stateMutability": "nonpayable",
      "type": "constructor"
    },
    {
      "inputs": [],
      "name": "EndIssue",
      "outputs": [],
      "stateMutability": "nonpayable",
      "type": "function"
    },
    {
      "inputs": [],
      "name": "Ijaara",
      "outputs": [
        {
          "internalType": "address payable",
          "name": "",
          "type": "address"
        }
      ],
      "stateMutability": "view",
      "type": "function"
    },
    {
      "inputs": [],
      "name": "IssueSukuk",
      "outputs": [],
      "stateMutability": "nonpayable",
      "type": "function"
    },
    {
      "inputs": [
        {
          "internalType": "address",
          "name": "",
          "type": "address"
        }
      ],
      "name": "addressToAmountDeposited",
      "outputs": [
        {
          "internalType": "uint256",
          "name": "",
          "type": "uint256"
        }
      ],
      "stateMutability": "view",
      "type": "function"
    },
    {
      "inputs": [
        {
          "internalType": "address",
          "name": "",
          "type": "address"
        }
      ],
      "name": "addressToAmountFunded",
      "outputs": [
        {
          "internalType": "uint256",
          "name": "",
          "type": "uint256"
        }
      ],
      "stateMutability": "view",
      "type": "function"
    },
    {
      "inputs": [],
      "name": "admin",
      "outputs": [
        {
          "internalType": "address",
          "name": "",
          "type": "address"
        }
      ],
      "stateMutability": "view",
      "type": "function"
    },
    {
      "inputs": [],
      "name": "deposit",
      "outputs": [],
      "stateMutability": "payable",
      "type": "function"
    },
    {
      "inputs": [],
      "name": "get",
      "outputs": [
        {
          "internalType": "enum Sukuk.SUKUK_STATE",
          "name": "",
          "type": "uint8"
        }
      ],
      "stateMutability": "view",
      "type": "function"
    },
    {
      "inputs": [],
      "name": "getAdminAddress",
      "outputs": [
        {
          "internalType": "address",
          "name": "",
          "type": "address"
        }
      ],
      "stateMutability": "view",
      "type": "function"
    },
    {
      "inputs": [],
      "name": "getBalance",
      "outputs": [
        {
          "internalType": "uint256",
          "name": "balance",
          "type": "uint256"
        }
      ],
      "stateMutability": "view",
      "type": "function"
    },
    {
      "inputs": [],
      "name": "getEntranceFee",
      "outputs": [
        {
          "internalType": "uint256",
          "name": "",
          "type": "uint256"
        }
      ],
      "stateMutability": "view",
      "type": "function"
    },
    {
      "inputs": [],
      "name": "getIjaaraAddress",
      "outputs": [
        {
          "internalType": "address",
          "name": "",
          "type": "address"
        }
      ],
      "stateMutability": "view",
      "type": "function"
    },
    {
      "inputs": [
        {
          "internalType": "uint256",
          "name": "_numberOfSukuk",
          "type": "uint256"
        }
      ],
      "name": "get_expetected_price",
      "outputs": [
        {
          "internalType": "uint256",
          "name": "exptectedPrice",
          "type": "uint256"
        }
      ],
      "stateMutability": "view",
      "type": "function"
    },
    {
      "inputs": [
        {
          "internalType": "address",
          "name": "",
          "type": "address"
        }
      ],
      "name": "investor_test",
      "outputs": [
        {
          "internalType": "address",
          "name": "investoraddress",
          "type": "address"
        },
        {
          "internalType": "uint256",
          "name": "number_of_sukuk",
          "type": "uint256"
        },
        {
          "internalType": "uint256",
          "name": "value",
          "type": "uint256"
        },
        {
          "internalType": "uint256",
          "name": "allowed",
          "type": "uint256"
        }
      ],
      "stateMutability": "view",
      "type": "function"
    },
    {
      "inputs": [
        {
          "internalType": "uint256",
          "name": "",
          "type": "uint256"
        }
      ],
      "name": "investors",
      "outputs": [
        {
          "internalType": "address payable",
          "name": "",
          "type": "address"
        }
      ],
      "stateMutability": "view",
      "type": "function"
    },
    {
      "inputs": [],
      "name": "priceFeed",
      "outputs": [
        {
          "internalType": "contract AggregatorV3Interface",
          "name": "",
          "type": "address"
        }
      ],
      "stateMutability": "view",
      "type": "function"
    },
    {
      "inputs": [
        {
          "internalType": "uint256",
          "name": "_number_of_sukuk",
          "type": "uint256"
        }
      ],
      "name": "purchase_suk",
      "outputs": [],
      "stateMutability": "payable",
      "type": "function"
    },
    {
      "inputs": [
        {
          "internalType": "address payable",
          "name": "_Ijaara",
          "type": "address"
        }
      ],
      "name": "setIjaara",
      "outputs": [],
      "stateMutability": "nonpayable",
      "type": "function"
    },
    {
      "inputs": [],
      "name": "startRedeem",
      "outputs": [],
      "stateMutability": "nonpayable",
      "type": "function"
    },
    {
      "inputs": [],
      "name": "startSukuk",
      "outputs": [],
      "stateMutability": "nonpayable",
      "type": "function"
    },
    {
      "inputs": [
        {
          "internalType": "uint256",
          "name": "",
          "type": "uint256"
        }
      ],
      "name": "suk_investors",
      "outputs": [
        {
          "internalType": "address",
          "name": "investoraddress",
          "type": "address"
        },
        {
          "internalType": "uint256",
          "name": "number_of_sukuk",
          "type": "uint256"
        },
        {
          "internalType": "uint256",
          "name": "value",
          "type": "uint256"
        },
        {
          "internalType": "uint256",
          "name": "allowed",
          "type": "uint256"
        }
      ],
      "stateMutability": "view",
      "type": "function"
    },
    {
      "inputs": [],
      "name": "suk_price",
      "outputs": [
        {
          "internalType": "uint256",
          "name": "",
          "type": "uint256"
        }
      ],
      "stateMutability": "view",
      "type": "function"
    },
    {
      "inputs": [],
      "name": "sukuk_state",
      "outputs": [
        {
          "internalType": "enum Sukuk.SUKUK_STATE",
          "name": "",
          "type": "uint8"
        }
      ],
      "stateMutability": "view",
      "type": "function"
    },
    {
      "inputs": [],
      "name": "withdraw",
      "outputs": [],
      "stateMutability": "payable",
      "type": "function"
    }
  ],
  "bytecode": "608060405234801561001057600080fd5b50604051610b10380380610b108339818101604052602081101561003357600080fd5b5051600480546001600160a01b0383166001600160a01b03199182161790915560038054909116331781556009805460ff191660018302179055505068056bc75e2d63100000600655610a858061008b6000396000f3fe60806040526004361061014b5760003560e01c80637ce2a070116100b6578063b2e6b9121161006f578063b2e6b912146103cd578063bf859271146103e2578063cc5dd07c14610415578063ce00d8131461043f578063d0e30db014610454578063f851a4401461045c5761014b565b80637ce2a070146103295780637e72ee671461034657806384b560f31461037957806386e447161461038e5780638a2fee73146103a35780639e3578d7146103b85761014b565b80633e47d6f3116101085780633e47d6f3146102545780633fe8804c146102875780633feb5f2b146102c057806345bcad9a146102ea5780636d4ce63c146102ff578063741bef1a146103145761014b565b806309bc33a71461015057806312065fe01461017757806321f5e9e41461018c578063340d02fe146101b65780633ccfd60b146101e75780633d51d601146101f1575b600080fd5b34801561015c57600080fd5b50610165610471565b60408051918252519081900360200190f35b34801561018357600080fd5b50610165610512565b34801561019857600080fd5b50610165600480360360208110156101af57600080fd5b5035610516565b3480156101c257600080fd5b506101cb61052a565b604080516001600160a01b039092168252519081900360200190f35b6101ef610539565b005b3480156101fd57600080fd5b506102246004803603602081101561021457600080fd5b50356001600160a01b031661057f565b604080516001600160a01b0390951685526020850193909352838301919091526060830152519081900360800190f35b34801561026057600080fd5b506101656004803603602081101561027757600080fd5b50356001600160a01b03166105b0565b34801561029357600080fd5b5061029c6105c2565b604051808260068111156102ac57fe5b60ff16815260200191505060405180910390f35b3480156102cc57600080fd5b506101cb600480360360208110156102e357600080fd5b50356105cb565b3480156102f657600080fd5b506101ef6105f2565b34801561030b57600080fd5b5061029c61067f565b34801561032057600080fd5b506101cb610688565b6101ef6004803603602081101561033f57600080fd5b5035610697565b34801561035257600080fd5b506101656004803603602081101561036957600080fd5b50356001600160a01b03166107e5565b34801561038557600080fd5b506101cb6107f7565b34801561039a57600080fd5b50610165610806565b3480156103af57600080fd5b506101ef61080c565b3480156103c457600080fd5b506101ef610885565b3480156103d957600080fd5b506101cb6108fe565b3480156103ee57600080fd5b506101ef6004803603602081101561040557600080fd5b50356001600160a01b031661090d565b34801561042157600080fd5b506102246004803603602081101561043857600080fd5b5035610946565b34801561044b57600080fd5b506101ef610987565b6101ef610a12565b34801561046857600080fd5b506101cb610a40565b6004805460408051633fabe5a360e21b8152905160009384936001600160a01b03169263feaf968c928183019260a092829003018186803b1580156104b557600080fd5b505afa1580156104c9573d6000803e3d6000fd5b505050506040513d60a08110156104df57600080fd5b50602001516006549091506402540be4008202906000908290670de0b6b3a7640000028161050957fe5b04935050505090565b4790565b600080610521610471565b90920292915050565b6005546001600160a01b031681565b6005546001600160a01b0316331461055057600080fd5b60405133904780156108fc02916000818181858888f1935050505015801561057c573d6000803e3d6000fd5b50565b60086020526000908152604090208054600182015460028301546003909301546001600160a01b0390921692909184565b60006020819052908152604090205481565b60095460ff1681565b600281815481106105d857fe5b6000918252602090912001546001600160a01b0316905081565b6003546001600160a01b0316331461060957600080fd5b600360095460ff16600681111561061c57fe5b14610669576040805162461bcd60e51b815260206004820152601860248201527710d85b89dd081a5cdcdd59481b995dc81cdd5adcc81e595d60421b604482015290519081900360640190fd5b600980546001919060ff191682805b0217905550565b60095460ff1690565b6004546001600160a01b031681565b60006106a282610516565b90503481146106f8576040805162461bcd60e51b815260206004820152601e60248201527f53656e642074686520636f727265637420616d6f756e74206f66206574680000604482015290519081900360640190fd5b5060408051608081018252338152602081019283523491810191825260016060820181815260078054928301815560005291517fa66cc928b5edb82af9bd49922954155ab7b0942694bea4ce44661d9a8736c688600490920291820180546001600160a01b0319166001600160a01b0390921691909117905592517fa66cc928b5edb82af9bd49922954155ab7b0942694bea4ce44661d9a8736c68984015590517fa66cc928b5edb82af9bd49922954155ab7b0942694bea4ce44661d9a8736c68a830155517fa66cc928b5edb82af9bd49922954155ab7b0942694bea4ce44661d9a8736c68b90910155565b60016020526000908152604090205481565b6005546001600160a01b031690565b60065481565b6003546001600160a01b0316331461082357600080fd5b600260095460ff16600681111561083657fe5b14610871576040805162461bcd60e51b8152602060048083019190915260248201526315195cdd60e21b604482015290519081900360640190fd5b600980546000919060ff1916600183610678565b6003546001600160a01b0316331461089c57600080fd5b600060095460ff1660068111156108af57fe5b146108ea576040805162461bcd60e51b8152602060048083019190915260248201526315195cdd60e21b604482015290519081900360640190fd5b600980546004919060ff1916600183610678565b6003546001600160a01b031690565b6003546001600160a01b0316331461092457600080fd5b600580546001600160a01b0319166001600160a01b0392909216919091179055565b6007818154811061095357fe5b600091825260209091206004909102018054600182015460028301546003909301546001600160a01b039092169350919084565b6003546001600160a01b0316331461099e57600080fd5b600160095460ff1660068111156109b157fe5b146109fe576040805162461bcd60e51b815260206004820152601860248201527710d85b89dd081a5cdcdd59481b995dc81cdd5adcc81e595d60421b604482015290519081900360640190fd5b600980546002919060ff1916600183610678565b6005546001600160a01b03163314610a2957600080fd5b336000908152600160205260409020805434019055565b6003546001600160a01b03168156fea264697066735822122030bbe5af11be1961c5f38ffd8e37b4ed89ad20ba93f3e4f9b1b3e00fcbed299364736f6c63430006000033",
  "bytecodeSha1": "be3df4b7bdcdabc84cde7aa6305e4adae267f378",
  "compiler": {
    "evm_version": "istanbul",
    "optimizer": {
      "enabled": true,
      "runs": 200
    },
    "version": "0.6.0+commit.26b70077"
  },
  "contractName": "Sukuk",
  "language": "Solidity",
  "natspec": {
    "methods": {}
  },
  "opcodes": "PUSH1 0x80 PUSH1 0x40 MSTORE PUSH1 0x4 CALLDATASIZE LT PUSH2 0x14B JUMPI PUSH1 0x0 CALLDATALOAD PUSH1 0xE0 SHR DUP1 PUSH4 0x7CE2A070 GT PUSH2 0xB6 JUMPI DUP1 PUSH4 0xB2E6B912 GT PUSH2 0x6F JUMPI DUP1 PUSH4 0xB2E6B912 EQ PUSH2 0x3CD JUMPI DUP1 PUSH4 0xBF859271 EQ PUSH2 0x3E2 JUMPI DUP1 PUSH4 0xCC5DD07C EQ PUSH2 0x415 JUMPI DUP1 PUSH4 0xCE00D813 EQ PUSH2 0x43F JUMPI DUP1 PUSH4 0xD0E30DB0 EQ PUSH2 0x454 JUMPI DUP1 PUSH4 0xF851A440 EQ PUSH2 0x45C JUMPI PUSH2 0x14B JUMP JUMPDEST DUP1 PUSH4 0x7CE2A070 EQ PUSH2 0x329 JUMPI DUP1 PUSH4 0x7E72EE67 EQ PUSH2 0x346 JUMPI DUP1 PUSH4 0x84B560F3 EQ PUSH2 0x379 JUMPI DUP1 PUSH4 0x86E44716 EQ PUSH2 0x38E JUMPI DUP1 PUSH4 0x8A2FEE73 EQ PUSH2 0x3A3 JUMPI DUP1 PUSH4 0x9E3578D7 EQ PUSH2 0x3B8 JUMPI PUSH2 0x14B JUMP JUMPDEST DUP1 PUSH4 0x3E47D6F3 GT PUSH2 0x108 JUMPI DUP1 PUSH4 0x3E47D6F3 EQ PUSH2 0x254 JUMPI DUP1 PUSH4 0x3FE8804C EQ PUSH2 0x287 JUMPI DUP1 PUSH4 0x3FEB5F2B EQ PUSH2 0x2C0 JUMPI DUP1 PUSH4 0x45BCAD9A EQ PUSH2 0x2EA JUMPI DUP1 PUSH4 0x6D4CE63C EQ PUSH2 0x2FF JUMPI DUP1 PUSH4 0x741BEF1A EQ PUSH2 0x314 JUMPI PUSH2 0x14B JUMP JUMPDEST DUP1 PUSH4 0x9BC33A7 EQ PUSH2 0x150 JUMPI DUP1 PUSH4 0x12065FE0 EQ PUSH2 0x177 JUMPI DUP1 PUSH4 0x21F5E9E4 EQ PUSH2 0x18C JUMPI DUP1 PUSH4 0x340D02FE EQ PUSH2 0x1B6 JUMPI DUP1 PUSH4 0x3CCFD60B EQ PUSH2 0x1E7 JUMPI DUP1 PUSH4 0x3D51D601 EQ PUSH2 0x1F1 JUMPI JUMPDEST PUSH1 0x0 DUP1 REVERT JUMPDEST CALLVALUE DUP1 ISZERO PUSH2 0x15C JUMPI PUSH1 0x0 DUP1 REVERT JUMPDEST POP PUSH2 0x165 PUSH2 0x471 JUMP JUMPDEST PUSH1 0x40 DUP1 MLOAD SWAP2 DUP3 MSTORE MLOAD SWAP1 DUP2 SWAP1 SUB PUSH1 0x20 ADD SWAP1 RETURN JUMPDEST CALLVALUE DUP1 ISZERO PUSH2 0x183 JUMPI PUSH1 0x0 DUP1 REVERT JUMPDEST POP PUSH2 0x165 PUSH2 0x512 JUMP JUMPDEST CALLVALUE DUP1 ISZERO PUSH2 0x198 JUMPI PUSH1 0x0 DUP1 REVERT JUMPDEST POP PUSH2 0x165 PUSH1 0x4 DUP1 CALLDATASIZE SUB PUSH1 0x20 DUP2 LT ISZERO PUSH2 0x1AF JUMPI PUSH1 0x0 DUP1 REVERT JUMPDEST POP CALLDATALOAD PUSH2 0x516 JUMP JUMPDEST CALLVALUE DUP1 ISZERO PUSH2 0x1C2 JUMPI PUSH1 0x0 DUP1 REVERT JUMPDEST POP PUSH2 0x1CB PUSH2 0x52A JUMP JUMPDEST PUSH1 0x40 DUP1 MLOAD PUSH1 0x1 PUSH1 0x1 PUSH1 0xA0 SHL SUB SWAP1 SWAP3 AND DUP3 MSTORE MLOAD SWAP1 DUP2 SWAP1 SUB PUSH1 0x20 ADD SWAP1 RETURN JUMPDEST PUSH2 0x1EF PUSH2 0x539 JUMP JUMPDEST STOP JUMPDEST CALLVALUE DUP1 ISZERO PUSH2 0x1FD JUMPI PUSH1 0x0 DUP1 REVERT JUMPDEST POP PUSH2 0x224 PUSH1 0x4 DUP1 CALLDATASIZE SUB PUSH1 0x20 DUP2 LT ISZERO PUSH2 0x214 JUMPI PUSH1 0x0 DUP1 REVERT JUMPDEST POP CALLDATALOAD PUSH1 0x1 PUSH1 0x1 PUSH1 0xA0 SHL SUB AND PUSH2 0x57F JUMP JUMPDEST PUSH1 0x40 DUP1 MLOAD PUSH1 0x1 PUSH1 0x1 PUSH1 0xA0 SHL SUB SWAP1 SWAP6 AND DUP6 MSTORE PUSH1 0x20 DUP6 ADD SWAP4 SWAP1 SWAP4 MSTORE DUP4 DUP4 ADD SWAP2 SWAP1 SWAP2 MSTORE PUSH1 0x60 DUP4 ADD MSTORE MLOAD SWAP1 DUP2 SWAP1 SUB PUSH1 0x80 ADD SWAP1 RETURN JUMPDEST CALLVALUE DUP1 ISZERO PUSH2 0x260 JUMPI PUSH1 0x0 DUP1 REVERT JUMPDEST POP PUSH2 0x165 PUSH1 0x4 DUP1 CALLDATASIZE SUB PUSH1 0x20 DUP2 LT ISZERO PUSH2 0x277 JUMPI PUSH1 0x0 DUP1 REVERT JUMPDEST POP CALLDATALOAD PUSH1 0x1 PUSH1 0x1 PUSH1 0xA0 SHL SUB AND PUSH2 0x5B0 JUMP JUMPDEST CALLVALUE DUP1 ISZERO PUSH2 0x293 JUMPI PUSH1 0x0 DUP1 REVERT JUMPDEST POP PUSH2 0x29C PUSH2 0x5C2 JUMP JUMPDEST PUSH1 0x40 MLOAD DUP1 DUP3 PUSH1 0x6 DUP2 GT ISZERO PUSH2 0x2AC JUMPI INVALID JUMPDEST PUSH1 0xFF AND DUP2 MSTORE PUSH1 0x20 ADD SWAP2 POP POP PUSH1 0x40 MLOAD DUP1 SWAP2 SUB SWAP1 RETURN JUMPDEST CALLVALUE DUP1 ISZERO PUSH2 0x2CC JUMPI PUSH1 0x0 DUP1 REVERT JUMPDEST POP PUSH2 0x1CB PUSH1 0x4 DUP1 CALLDATASIZE SUB PUSH1 0x20 DUP2 LT ISZERO PUSH2 0x2E3 JUMPI PUSH1 0x0 DUP1 REVERT JUMPDEST POP CALLDATALOAD PUSH2 0x5CB JUMP JUMPDEST CALLVALUE DUP1 ISZERO PUSH2 0x2F6 JUMPI PUSH1 0x0 DUP1 REVERT JUMPDEST POP PUSH2 0x1EF PUSH2 0x5F2 JUMP JUMPDEST CALLVALUE DUP1 ISZERO PUSH2 0x30B JUMPI PUSH1 0x0 DUP1 REVERT JUMPDEST POP PUSH2 0x29C PUSH2 0x67F JUMP JUMPDEST CALLVALUE DUP1 ISZERO PUSH2 0x320 JUMPI PUSH1 0x0 DUP1 REVERT JUMPDEST POP PUSH2 0x1CB PUSH2 0x688 JUMP JUMPDEST PUSH2 0x1EF PUSH1 0x4 DUP1 CALLDATASIZE SUB PUSH1 0x20 DUP2 LT ISZERO PUSH2 0x33F JUMPI PUSH1 0x0 DUP1 REVERT JUMPDEST POP CALLDATALOAD PUSH2 0x697 JUMP JUMPDEST CALLVALUE DUP1 ISZERO PUSH2 0x352 JUMPI PUSH1 0x0 DUP1 REVERT JUMPDEST POP PUSH2 0x165 PUSH1 0x4 DUP1 CALLDATASIZE SUB PUSH1 0x20 DUP2 LT ISZERO PUSH2 0x369 JUMPI PUSH1 0x0 DUP1 REVERT JUMPDEST POP CALLDATALOAD PUSH1 0x1 PUSH1 0x1 PUSH1 0xA0 SHL SUB AND PUSH2 0x7E5 JUMP JUMPDEST CALLVALUE DUP1 ISZERO PUSH2 0x385 JUMPI PUSH1 0x0 DUP1 REVERT JUMPDEST POP PUSH2 0x1CB PUSH2 0x7F7 JUMP JUMPDEST CALLVALUE DUP1 ISZERO PUSH2 0x39A JUMPI PUSH1 0x0 DUP1 REVERT JUMPDEST POP PUSH2 0x165 PUSH2 0x806 JUMP JUMPDEST CALLVALUE DUP1 ISZERO PUSH2 0x3AF JUMPI PUSH1 0x0 DUP1 REVERT JUMPDEST POP PUSH2 0x1EF PUSH2 0x80C JUMP JUMPDEST CALLVALUE DUP1 ISZERO PUSH2 0x3C4 JUMPI PUSH1 0x0 DUP1 REVERT JUMPDEST POP PUSH2 0x1EF PUSH2 0x885 JUMP JUMPDEST CALLVALUE DUP1 ISZERO PUSH2 0x3D9 JUMPI PUSH1 0x0 DUP1 REVERT JUMPDEST POP PUSH2 0x1CB PUSH2 0x8FE JUMP JUMPDEST CALLVALUE DUP1 ISZERO PUSH2 0x3EE JUMPI PUSH1 0x0 DUP1 REVERT JUMPDEST POP PUSH2 0x1EF PUSH1 0x4 DUP1 CALLDATASIZE SUB PUSH1 0x20 DUP2 LT ISZERO PUSH2 0x405 JUMPI PUSH1 0x0 DUP1 REVERT JUMPDEST POP CALLDATALOAD PUSH1 0x1 PUSH1 0x1 PUSH1 0xA0 SHL SUB AND PUSH2 0x90D JUMP JUMPDEST CALLVALUE DUP1 ISZERO PUSH2 0x421 JUMPI PUSH1 0x0 DUP1 REVERT JUMPDEST POP PUSH2 0x224 PUSH1 0x4 DUP1 CALLDATASIZE SUB PUSH1 0x20 DUP2 LT ISZERO PUSH2 0x438 JUMPI PUSH1 0x0 DUP1 REVERT JUMPDEST POP CALLDATALOAD PUSH2 0x946 JUMP JUMPDEST CALLVALUE DUP1 ISZERO PUSH2 0x44B JUMPI PUSH1 0x0 DUP1 REVERT JUMPDEST POP PUSH2 0x1EF PUSH2 0x987 JUMP JUMPDEST PUSH2 0x1EF PUSH2 0xA12 JUMP JUMPDEST CALLVALUE DUP1 ISZERO PUSH2 0x468 JUMPI PUSH1 0x0 DUP1 REVERT JUMPDEST POP PUSH2 0x1CB PUSH2 0xA40 JUMP JUMPDEST PUSH1 0x4 DUP1 SLOAD PUSH1 0x40 DUP1 MLOAD PUSH4 0x3FABE5A3 PUSH1 0xE2 SHL DUP2 MSTORE SWAP1 MLOAD PUSH1 0x0 SWAP4 DUP5 SWAP4 PUSH1 0x1 PUSH1 0x1 PUSH1 0xA0 SHL SUB AND SWAP3 PUSH4 0xFEAF968C SWAP3 DUP2 DUP4 ADD SWAP3 PUSH1 0xA0 SWAP3 DUP3 SWAP1 SUB ADD DUP2 DUP7 DUP1 EXTCODESIZE ISZERO DUP1 ISZERO PUSH2 0x4B5 JUMPI PUSH1 0x0 DUP1 REVERT JUMPDEST POP GAS STATICCALL ISZERO DUP1 ISZERO PUSH2 0x4C9 JUMPI RETURNDATASIZE PUSH1 0x0 DUP1 RETURNDATACOPY RETURNDATASIZE PUSH1 0x0 REVERT JUMPDEST POP POP POP POP PUSH1 0x40 MLOAD RETURNDATASIZE PUSH1 0xA0 DUP2 LT ISZERO PUSH2 0x4DF JUMPI PUSH1 0x0 DUP1 REVERT JUMPDEST POP PUSH1 0x20 ADD MLOAD PUSH1 0x6 SLOAD SWAP1 SWAP2 POP PUSH5 0x2540BE400 DUP3 MUL SWAP1 PUSH1 0x0 SWAP1 DUP3 SWAP1 PUSH8 0xDE0B6B3A7640000 MUL DUP2 PUSH2 0x509 JUMPI INVALID JUMPDEST DIV SWAP4 POP POP POP POP SWAP1 JUMP JUMPDEST SELFBALANCE SWAP1 JUMP JUMPDEST PUSH1 0x0 DUP1 PUSH2 0x521 PUSH2 0x471 JUMP JUMPDEST SWAP1 SWAP3 MUL SWAP3 SWAP2 POP POP JUMP JUMPDEST PUSH1 0x5 SLOAD PUSH1 0x1 PUSH1 0x1 PUSH1 0xA0 SHL SUB AND DUP2 JUMP JUMPDEST PUSH1 0x5 SLOAD PUSH1 0x1 PUSH1 0x1 PUSH1 0xA0 SHL SUB AND CALLER EQ PUSH2 0x550 JUMPI PUSH1 0x0 DUP1 REVERT JUMPDEST PUSH1 0x40 MLOAD CALLER SWAP1 SELFBALANCE DUP1 ISZERO PUSH2 0x8FC MUL SWAP2 PUSH1 0x0 DUP2 DUP2 DUP2 DUP6 DUP9 DUP9 CALL SWAP4 POP POP POP POP ISZERO DUP1 ISZERO PUSH2 0x57C JUMPI RETURNDATASIZE PUSH1 0x0 DUP1 RETURNDATACOPY RETURNDATASIZE PUSH1 0x0 REVERT JUMPDEST POP JUMP JUMPDEST PUSH1 0x8 PUSH1 0x20 MSTORE PUSH1 0x0 SWAP1 DUP2 MSTORE PUSH1 0x40 SWAP1 KECCAK256 DUP1 SLOAD PUSH1 0x1 DUP3 ADD SLOAD PUSH1 0x2 DUP4 ADD SLOAD PUSH1 0x3 SWAP1 SWAP4 ADD SLOAD PUSH1 0x1 PUSH1 0x1 PUSH1 0xA0 SHL SUB SWAP1 SWAP3 AND SWAP3 SWAP1 SWAP2 DUP5 JUMP JUMPDEST PUSH1 0x0 PUSH1 0x20 DUP2 SWAP1 MSTORE SWAP1 DUP2 MSTORE PUSH1 0x40 SWAP1 KECCAK256 SLOAD DUP2 JUMP JUMPDEST PUSH1 0x9 SLOAD PUSH1 0xFF AND DUP2 JUMP JUMPDEST PUSH1 0x2 DUP2 DUP2 SLOAD DUP2 LT PUSH2 0x5D8 JUMPI INVALID JUMPDEST PUSH1 0x0 SWAP2 DUP3 MSTORE PUSH1 0x20 SWAP1 SWAP2 KECCAK256 ADD SLOAD PUSH1 0x1 PUSH1 0x1 PUSH1 0xA0 SHL SUB AND SWAP1 POP DUP2 JUMP JUMPDEST PUSH1 0x3 SLOAD PUSH1 0x1 PUSH1 0x1 PUSH1 0xA0 SHL SUB AND CALLER EQ PUSH2 0x609 JUMPI PUSH1 0x0 DUP1 REVERT JUMPDEST PUSH1 0x3 PUSH1 0x9 SLOAD PUSH1 0xFF AND PUSH1 0x6 DUP2 GT ISZERO PUSH2 0x61C JUMPI INVALID JUMPDEST EQ PUSH2 0x669 JUMPI PUSH1 0x40 DUP1 MLOAD PUSH3 0x461BCD PUSH1 0xE5 SHL DUP2 MSTORE PUSH1 0x20 PUSH1 0x4 DUP3 ADD MSTORE PUSH1 0x18 PUSH1 0x24 DUP3 ADD MSTORE PUSH24 0x10D85B89DD081A5CDCDD59481B995DC81CDD5ADCC81E595D PUSH1 0x42 SHL PUSH1 0x44 DUP3 ADD MSTORE SWAP1 MLOAD SWAP1 DUP2 SWAP1 SUB PUSH1 0x64 ADD SWAP1 REVERT JUMPDEST PUSH1 0x9 DUP1 SLOAD PUSH1 0x1 SWAP2 SWAP1 PUSH1 0xFF NOT AND DUP3 DUP1 JUMPDEST MUL OR SWAP1 SSTORE POP JUMP JUMPDEST PUSH1 0x9 SLOAD PUSH1 0xFF AND SWAP1 JUMP JUMPDEST PUSH1 0x4 SLOAD PUSH1 0x1 PUSH1 0x1 PUSH1 0xA0 SHL SUB AND DUP2 JUMP JUMPDEST PUSH1 0x0 PUSH2 0x6A2 DUP3 PUSH2 0x516 JUMP JUMPDEST SWAP1 POP CALLVALUE DUP2 EQ PUSH2 0x6F8 JUMPI PUSH1 0x40 DUP1 MLOAD PUSH3 0x461BCD PUSH1 0xE5 SHL DUP2 MSTORE PUSH1 0x20 PUSH1 0x4 DUP3 ADD MSTORE PUSH1 0x1E PUSH1 0x24 DUP3 ADD MSTORE PUSH32 0x53656E642074686520636F727265637420616D6F756E74206F66206574680000 PUSH1 0x44 DUP3 ADD MSTORE SWAP1 MLOAD SWAP1 DUP2 SWAP1 SUB PUSH1 0x64 ADD SWAP1 REVERT JUMPDEST POP PUSH1 0x40 DUP1 MLOAD PUSH1 0x80 DUP2 ADD DUP3 MSTORE CALLER DUP2 MSTORE PUSH1 0x20 DUP2 ADD SWAP3 DUP4 MSTORE CALLVALUE SWAP2 DUP2 ADD SWAP2 DUP3 MSTORE PUSH1 0x1 PUSH1 0x60 DUP3 ADD DUP2 DUP2 MSTORE PUSH1 0x7 DUP1 SLOAD SWAP3 DUP4 ADD DUP2 SSTORE PUSH1 0x0 MSTORE SWAP2 MLOAD PUSH32 0xA66CC928B5EDB82AF9BD49922954155AB7B0942694BEA4CE44661D9A8736C688 PUSH1 0x4 SWAP1 SWAP3 MUL SWAP2 DUP3 ADD DUP1 SLOAD PUSH1 0x1 PUSH1 0x1 PUSH1 0xA0 SHL SUB NOT AND PUSH1 0x1 PUSH1 0x1 PUSH1 0xA0 SHL SUB SWAP1 SWAP3 AND SWAP2 SWAP1 SWAP2 OR SWAP1 SSTORE SWAP3 MLOAD PUSH32 0xA66CC928B5EDB82AF9BD49922954155AB7B0942694BEA4CE44661D9A8736C689 DUP5 ADD SSTORE SWAP1 MLOAD PUSH32 0xA66CC928B5EDB82AF9BD49922954155AB7B0942694BEA4CE44661D9A8736C68A DUP4 ADD SSTORE MLOAD PUSH32 0xA66CC928B5EDB82AF9BD49922954155AB7B0942694BEA4CE44661D9A8736C68B SWAP1 SWAP2 ADD SSTORE JUMP JUMPDEST PUSH1 0x1 PUSH1 0x20 MSTORE PUSH1 0x0 SWAP1 DUP2 MSTORE PUSH1 0x40 SWAP1 KECCAK256 SLOAD DUP2 JUMP JUMPDEST PUSH1 0x5 SLOAD PUSH1 0x1 PUSH1 0x1 PUSH1 0xA0 SHL SUB AND SWAP1 JUMP JUMPDEST PUSH1 0x6 SLOAD DUP2 JUMP JUMPDEST PUSH1 0x3 SLOAD PUSH1 0x1 PUSH1 0x1 PUSH1 0xA0 SHL SUB AND CALLER EQ PUSH2 0x823 JUMPI PUSH1 0x0 DUP1 REVERT JUMPDEST PUSH1 0x2 PUSH1 0x9 SLOAD PUSH1 0xFF AND PUSH1 0x6 DUP2 GT ISZERO PUSH2 0x836 JUMPI INVALID JUMPDEST EQ PUSH2 0x871 JUMPI PUSH1 0x40 DUP1 MLOAD PUSH3 0x461BCD PUSH1 0xE5 SHL DUP2 MSTORE PUSH1 0x20 PUSH1 0x4 DUP1 DUP4 ADD SWAP2 SWAP1 SWAP2 MSTORE PUSH1 0x24 DUP3 ADD MSTORE PUSH4 0x15195CDD PUSH1 0xE2 SHL PUSH1 0x44 DUP3 ADD MSTORE SWAP1 MLOAD SWAP1 DUP2 SWAP1 SUB PUSH1 0x64 ADD SWAP1 REVERT JUMPDEST PUSH1 0x9 DUP1 SLOAD PUSH1 0x0 SWAP2 SWAP1 PUSH1 0xFF NOT AND PUSH1 0x1 DUP4 PUSH2 0x678 JUMP JUMPDEST PUSH1 0x3 SLOAD PUSH1 0x1 PUSH1 0x1 PUSH1 0xA0 SHL SUB AND CALLER EQ PUSH2 0x89C JUMPI PUSH1 0x0 DUP1 REVERT JUMPDEST PUSH1 0x0 PUSH1 0x9 SLOAD PUSH1 0xFF AND PUSH1 0x6 DUP2 GT ISZERO PUSH2 0x8AF JUMPI INVALID JUMPDEST EQ PUSH2 0x8EA JUMPI PUSH1 0x40 DUP1 MLOAD PUSH3 0x461BCD PUSH1 0xE5 SHL DUP2 MSTORE PUSH1 0x20 PUSH1 0x4 DUP1 DUP4 ADD SWAP2 SWAP1 SWAP2 MSTORE PUSH1 0x24 DUP3 ADD MSTORE PUSH4 0x15195CDD PUSH1 0xE2 SHL PUSH1 0x44 DUP3 ADD MSTORE SWAP1 MLOAD SWAP1 DUP2 SWAP1 SUB PUSH1 0x64 ADD SWAP1 REVERT JUMPDEST PUSH1 0x9 DUP1 SLOAD PUSH1 0x4 SWAP2 SWAP1 PUSH1 0xFF NOT AND PUSH1 0x1 DUP4 PUSH2 0x678 JUMP JUMPDEST PUSH1 0x3 SLOAD PUSH1 0x1 PUSH1 0x1 PUSH1 0xA0 SHL SUB AND SWAP1 JUMP JUMPDEST PUSH1 0x3 SLOAD PUSH1 0x1 PUSH1 0x1 PUSH1 0xA0 SHL SUB AND CALLER EQ PUSH2 0x924 JUMPI PUSH1 0x0 DUP1 REVERT JUMPDEST PUSH1 0x5 DUP1 SLOAD PUSH1 0x1 PUSH1 0x1 PUSH1 0xA0 SHL SUB NOT AND PUSH1 0x1 PUSH1 0x1 PUSH1 0xA0 SHL SUB SWAP3 SWAP1 SWAP3 AND SWAP2 SWAP1 SWAP2 OR SWAP1 SSTORE JUMP JUMPDEST PUSH1 0x7 DUP2 DUP2 SLOAD DUP2 LT PUSH2 0x953 JUMPI INVALID JUMPDEST PUSH1 0x0 SWAP2 DUP3 MSTORE PUSH1 0x20 SWAP1 SWAP2 KECCAK256 PUSH1 0x4 SWAP1 SWAP2 MUL ADD DUP1 SLOAD PUSH1 0x1 DUP3 ADD SLOAD PUSH1 0x2 DUP4 ADD SLOAD PUSH1 0x3 SWAP1 SWAP4 ADD SLOAD PUSH1 0x1 PUSH1 0x1 PUSH1 0xA0 SHL SUB SWAP1 SWAP3 AND SWAP4 POP SWAP2 SWAP1 DUP5 JUMP JUMPDEST PUSH1 0x3 SLOAD PUSH1 0x1 PUSH1 0x1 PUSH1 0xA0 SHL SUB AND CALLER EQ PUSH2 0x99E JUMPI PUSH1 0x0 DUP1 REVERT JUMPDEST PUSH1 0x1 PUSH1 0x9 SLOAD PUSH1 0xFF AND PUSH1 0x6 DUP2 GT ISZERO PUSH2 0x9B1 JUMPI INVALID JUMPDEST EQ PUSH2 0x9FE JUMPI PUSH1 0x40 DUP1 MLOAD PUSH3 0x461BCD PUSH1 0xE5 SHL DUP2 MSTORE PUSH1 0x20 PUSH1 0x4 DUP3 ADD MSTORE PUSH1 0x18 PUSH1 0x24 DUP3 ADD MSTORE PUSH24 0x10D85B89DD081A5CDCDD59481B995DC81CDD5ADCC81E595D PUSH1 0x42 SHL PUSH1 0x44 DUP3 ADD MSTORE SWAP1 MLOAD SWAP1 DUP2 SWAP1 SUB PUSH1 0x64 ADD SWAP1 REVERT JUMPDEST PUSH1 0x9 DUP1 SLOAD PUSH1 0x2 SWAP2 SWAP1 PUSH1 0xFF NOT AND PUSH1 0x1 DUP4 PUSH2 0x678 JUMP JUMPDEST PUSH1 0x5 SLOAD PUSH1 0x1 PUSH1 0x1 PUSH1 0xA0 SHL SUB AND CALLER EQ PUSH2 0xA29 JUMPI PUSH1 0x0 DUP1 REVERT JUMPDEST CALLER PUSH1 0x0 SWAP1 DUP2 MSTORE PUSH1 0x1 PUSH1 0x20 MSTORE PUSH1 0x40 SWAP1 KECCAK256 DUP1 SLOAD CALLVALUE ADD SWAP1 SSTORE JUMP JUMPDEST PUSH1 0x3 SLOAD PUSH1 0x1 PUSH1 0x1 PUSH1 0xA0 SHL SUB AND DUP2 JUMP INVALID LOG2 PUSH5 0x6970667358 0x22 SLT KECCAK256 ADDRESS 0xBB 0xE5 0xAF GT 0xBE NOT PUSH2 0xC5F3 DUP16 REVERT DUP15 CALLDATACOPY 0xB4 0xED DUP10 0xAD KECCAK256 0xBA SWAP4 RETURN 0xE4 0xF9 0xB1 0xB3 0xE0 0xF 0xCB 0xED 0x29 SWAP4 PUSH5 0x736F6C6343 STOP MOD STOP STOP CALLER ",
  "sha1": "4f95358f893d112a2dec0e0c5de3bd89ce5add05",
  "source": "// SPDX-License-Identifier: MIT\n\npragma solidity 0.6.0;\n\nimport \"@chainlink/contracts/src/v0.6/interfaces/AggregatorV3Interface.sol\";\n\n\n// This one for now to track what each investor/ I will look at the implementation later\n\n\ncontract Sukuk{\n\n    struct suk_investor{\n        address investoraddress;\n        uint256 number_of_sukuk;\n        uint256 value;\n        uint256 allowed;\n\n    }\n\n\n\n\n    mapping(address => uint256) public addressToAmountFunded;\n    mapping(address => uint256) public addressToAmountDeposited;\n    address payable[] public investors;\n    address public  admin;\n    AggregatorV3Interface public priceFeed;\n    address payable public Ijaara ;\n    uint public suk_price;\n    suk_investor[] public suk_investors;\n\n\n\n    mapping(address => suk_investor) public investor_test;\n\n\n\n\n    //Sukuk State\n    enum SUKUK_STATE{\n        COOLDOWN,   //This state will be when the contract is in effect however it doesn't have any tasks to excute\n        OPEN,\n        ISSUE,\n        CLOSEED,\n        \n        REDEEM_PERIOD,\n        TERM_1,\n        TERM_2\n    }\n    SUKUK_STATE public sukuk_state;\n\n\n    function get() public view returns(SUKUK_STATE){\n        return sukuk_state;\n    }\n\n    //function give_right_to_purchase(address Investor) public{\n        //require(\n         //   msg.sender == admin,\n          //  \"Only admin can give right to access\"\n       // );\n        //investor_test[suk_investor].allowed = 1;\n\n\n    //}\n\n\n\n\n\n\n\n\n\n    //added an argument to constructor for testing\n    constructor(\n        address _priceFeed\n      ) \n    public {\n        priceFeed = AggregatorV3Interface(_priceFeed);\n        // Admin will be the contract sender for now\n        admin = msg.sender;\n        sukuk_state = SUKUK_STATE.CLOSEED;\n        suk_price = 100* (10**18);\n\n    }\n\n\n    function get_expetected_price(uint256 _numberOfSukuk) public view returns (uint256 exptectedPrice) {\n        uint256 _suk_price = getEntranceFee();\n        uint256 expectedPrice = _suk_price * _numberOfSukuk;\n\n        return expectedPrice;\n        \n    }\n\n    function getEntranceFee() public view returns (uint256) {\n        (, int256 price, , , ) = priceFeed.latestRoundData();\n        uint256 adjustedPrice = uint256(price) * 10**10; // 18 decimals\n        // $50, $2,000 / ETH\n        // 50/2,000\n        // 50 * 100000 / 2000\n        uint256 costToEnter = (suk_price * 10**18) / adjustedPrice;\n        return costToEnter;\n    }\n\n\n\n\n    function     startSukuk( ) public onlyAdmin{\n            require(\n            sukuk_state == SUKUK_STATE.CLOSEED,\n            \"Can't issue new suks yet\"\n        );\n\n\n\n\n\n        sukuk_state = SUKUK_STATE.OPEN;\n\n    }\n    \n\n\n\n\n    function  IssueSukuk( ) public onlyAdmin{\n        require(\n            sukuk_state == SUKUK_STATE.OPEN,\n            \"Can't issue new suks yet\"\n        );\n\n        sukuk_state = SUKUK_STATE.ISSUE;\n\n    }\n\n    function EndIssue() public onlyAdmin{\n        require(\n            sukuk_state == SUKUK_STATE.ISSUE,\n            \"Test\"\n        );\n\n        sukuk_state = SUKUK_STATE.COOLDOWN;\n    }\n\n    function startRedeem() public onlyAdmin{\n        require(\n            sukuk_state == SUKUK_STATE.COOLDOWN,\n            \"Test\"\n        );\n\n        sukuk_state = SUKUK_STATE.REDEEM_PERIOD;\n    }\n\n\n\n\n\n    \n\n    function purchase_suk(uint256 _number_of_sukuk) public payable{\n\n\n\n        // Right now it only tracks the amount and address only.\n        // Later I will need to take the number of sukuk as a factor and change how it works\n        // It should take the number of sukuk and checks if the sent amount is correct or not \n        // Not lower or higher\n\n\n        //suk_investor memory new_investor = msg.sender;\n        uint expectedPrice = get_expetected_price(_number_of_sukuk);\n        require(\n            expectedPrice == msg.value,\n            \"Send the correct amount of eth\"\n        );\n\n\n       // new_investor.investoraddress = msg.sender;\n        //new_investor.number_of_sukuk = _number_of_sukuk;\n       // new_investor.value = msg.value;\n\n\n       // suk_investors.push(new_investor);\n\n\n\n\n\n\n\n        suk_investors.push(suk_investor(msg.sender,_number_of_sukuk,msg.value,1));\n       // investors.push(payable(msg.sender));\n    }\n\n\n\n\n    function setIjaara(address payable  _Ijaara ) public onlyAdmin{\n        Ijaara = _Ijaara;\n        \n    }\n\n\n\n\n\n\n\n\n    modifier onlyAdmin(){\n        require(msg.sender == admin);\n        _;\n    }\n\n    modifier onlyIjaara(){\n        require(msg.sender == Ijaara);\n        _;\n    }\n\n\n\n    function getAdminAddress( ) view public returns (address ) {\n\n        return admin;\n    }\n    function getIjaaraAddress( ) view public returns (address ) {\n        return Ijaara;\n    }\n\n    function withdraw() public payable onlyIjaara{\n        msg.sender.transfer(address(this).balance);\n\n       /* for (\n            uint256 funderIndex = 0;\n            funderIndex < investors.length;\n            funderIndex++\n        ) {\n            address funder = investors[funderIndex];\n            addressToAmountFunded[funder] = 0;\n        }\n    */\n    }\n\n    //function redeem() public payable{}\n\n    function deposit() public payable onlyIjaara{\n        addressToAmountDeposited[msg.sender] +=  msg.value;\n\n    }\n    function getBalance( ) view public returns (uint256 balance) {\n        return address(this).balance;\n        \n    }\n\n\n}",
  "sourcePath": "contracts/Purchese.sol",
  "type": "contract"
}