{
  "abi": [
    {
      "inputs": [
        {
          "internalType": "address",
          "name": "_priceFeed",
          "type": "address"
        }
      ],
      "stateMutability": "nonpayable",
      "type": "constructor"
    },
    {
      "inputs": [],
      "name": "EndIssue",
      "outputs": [],
      "stateMutability": "nonpayable",
      "type": "function"
    },
    {
      "inputs": [],
      "name": "Ijaara",
      "outputs": [
        {
          "internalType": "address payable",
          "name": "",
          "type": "address"
        }
      ],
      "stateMutability": "view",
      "type": "function"
    },
    {
      "inputs": [],
      "name": "IssueSukuk",
      "outputs": [],
      "stateMutability": "nonpayable",
      "type": "function"
    },
    {
      "inputs": [
        {
          "internalType": "address",
          "name": "",
          "type": "address"
        }
      ],
      "name": "addressToAmountDeposited",
      "outputs": [
        {
          "internalType": "uint256",
          "name": "",
          "type": "uint256"
        }
      ],
      "stateMutability": "view",
      "type": "function"
    },
    {
      "inputs": [
        {
          "internalType": "address",
          "name": "",
          "type": "address"
        }
      ],
      "name": "addressToAmountFunded",
      "outputs": [
        {
          "internalType": "uint256",
          "name": "",
          "type": "uint256"
        }
      ],
      "stateMutability": "view",
      "type": "function"
    },
    {
      "inputs": [],
      "name": "admin",
      "outputs": [
        {
          "internalType": "address",
          "name": "",
          "type": "address"
        }
      ],
      "stateMutability": "view",
      "type": "function"
    },
    {
      "inputs": [],
      "name": "deposit",
      "outputs": [],
      "stateMutability": "payable",
      "type": "function"
    },
    {
      "inputs": [],
      "name": "get",
      "outputs": [
        {
          "internalType": "enum Sukuk.SUKUK_STATE",
          "name": "",
          "type": "uint8"
        }
      ],
      "stateMutability": "view",
      "type": "function"
    },
    {
      "inputs": [],
      "name": "getAdminAddress",
      "outputs": [
        {
          "internalType": "address",
          "name": "",
          "type": "address"
        }
      ],
      "stateMutability": "view",
      "type": "function"
    },
    {
      "inputs": [],
      "name": "getBalance",
      "outputs": [
        {
          "internalType": "uint256",
          "name": "balance",
          "type": "uint256"
        }
      ],
      "stateMutability": "view",
      "type": "function"
    },
    {
      "inputs": [],
      "name": "getEntranceFee",
      "outputs": [
        {
          "internalType": "uint256",
          "name": "",
          "type": "uint256"
        }
      ],
      "stateMutability": "view",
      "type": "function"
    },
    {
      "inputs": [],
      "name": "getIjaaraAddress",
      "outputs": [
        {
          "internalType": "address",
          "name": "",
          "type": "address"
        }
      ],
      "stateMutability": "view",
      "type": "function"
    },
    {
      "inputs": [
        {
          "internalType": "uint256",
          "name": "_numberOfSukuk",
          "type": "uint256"
        }
      ],
      "name": "get_expetected_price",
      "outputs": [
        {
          "internalType": "uint256",
          "name": "exptectedPrice",
          "type": "uint256"
        }
      ],
      "stateMutability": "nonpayable",
      "type": "function"
    },
    {
      "inputs": [
        {
          "internalType": "address",
          "name": "",
          "type": "address"
        }
      ],
      "name": "investor_test",
      "outputs": [
        {
          "internalType": "address",
          "name": "investoraddress",
          "type": "address"
        },
        {
          "internalType": "uint256",
          "name": "number_of_sukuk",
          "type": "uint256"
        },
        {
          "internalType": "uint256",
          "name": "value",
          "type": "uint256"
        }
      ],
      "stateMutability": "view",
      "type": "function"
    },
    {
      "inputs": [
        {
          "internalType": "uint256",
          "name": "",
          "type": "uint256"
        }
      ],
      "name": "investors",
      "outputs": [
        {
          "internalType": "address payable",
          "name": "",
          "type": "address"
        }
      ],
      "stateMutability": "view",
      "type": "function"
    },
    {
      "inputs": [],
      "name": "priceFeed",
      "outputs": [
        {
          "internalType": "contract AggregatorV3Interface",
          "name": "",
          "type": "address"
        }
      ],
      "stateMutability": "view",
      "type": "function"
    },
    {
      "inputs": [
        {
          "internalType": "uint256",
          "name": "_number_of_sukuk",
          "type": "uint256"
        }
      ],
      "name": "purchase_suk",
      "outputs": [],
      "stateMutability": "payable",
      "type": "function"
    },
    {
      "inputs": [
        {
          "internalType": "address payable",
          "name": "_Ijaara",
          "type": "address"
        }
      ],
      "name": "setIjaara",
      "outputs": [],
      "stateMutability": "nonpayable",
      "type": "function"
    },
    {
      "inputs": [],
      "name": "startRedeem",
      "outputs": [],
      "stateMutability": "nonpayable",
      "type": "function"
    },
    {
      "inputs": [],
      "name": "startSukuk",
      "outputs": [],
      "stateMutability": "nonpayable",
      "type": "function"
    },
    {
      "inputs": [
        {
          "internalType": "uint256",
          "name": "",
          "type": "uint256"
        }
      ],
      "name": "suk_investors",
      "outputs": [
        {
          "internalType": "address",
          "name": "investoraddress",
          "type": "address"
        },
        {
          "internalType": "uint256",
          "name": "number_of_sukuk",
          "type": "uint256"
        },
        {
          "internalType": "uint256",
          "name": "value",
          "type": "uint256"
        }
      ],
      "stateMutability": "view",
      "type": "function"
    },
    {
      "inputs": [],
      "name": "suk_price",
      "outputs": [
        {
          "internalType": "uint256",
          "name": "",
          "type": "uint256"
        }
      ],
      "stateMutability": "view",
      "type": "function"
    },
    {
      "inputs": [],
      "name": "sukuk_state",
      "outputs": [
        {
          "internalType": "enum Sukuk.SUKUK_STATE",
          "name": "",
          "type": "uint8"
        }
      ],
      "stateMutability": "view",
      "type": "function"
    },
    {
      "inputs": [],
      "name": "withdraw",
      "outputs": [],
      "stateMutability": "payable",
      "type": "function"
    }
  ],
  "bytecode": "608060405234801561001057600080fd5b50604051610a1a380380610a1a8339818101604052602081101561003357600080fd5b5051600480546001600160a01b0383166001600160a01b03199182161790915560038054909116331781556009805460ff19166001830217905550506064600655610997806100836000396000f3fe60806040526004361061014b5760003560e01c80637ce2a070116100b6578063b2e6b9121161006f578063b2e6b912146103c2578063bf859271146103d7578063cc5dd07c1461040a578063ce00d81314610434578063d0e30db014610449578063f851a440146104515761014b565b80637ce2a0701461031e5780637e72ee671461033b57806384b560f31461036e57806386e44716146103835780638a2fee73146103985780639e3578d7146103ad5761014b565b80633e47d6f3116101085780633e47d6f31461024c5780633fe8804c1461027f5780633feb5f2b146102b557806345bcad9a146102df5780636d4ce63c146102f4578063741bef1a146103095761014b565b806309bc33a71461015057806312065fe01461017757806321f5e9e41461018c578063340d02fe146101b65780633ccfd60b146101e75780633d51d601146101f1575b600080fd5b34801561015c57600080fd5b50610165610466565b60408051918252519081900360200190f35b34801561018357600080fd5b50610165610507565b34801561019857600080fd5b50610165600480360360208110156101af57600080fd5b503561050b565b3480156101c257600080fd5b506101cb61051d565b604080516001600160a01b039092168252519081900360200190f35b6101ef61052c565b005b3480156101fd57600080fd5b506102246004803603602081101561021457600080fd5b50356001600160a01b0316610572565b604080516001600160a01b039094168452602084019290925282820152519081900360600190f35b34801561025857600080fd5b506101656004803603602081101561026f57600080fd5b50356001600160a01b031661059d565b34801561028b57600080fd5b506102946105af565b604051808260068111156102a457fe5b815260200191505060405180910390f35b3480156102c157600080fd5b506101cb600480360360208110156102d857600080fd5b50356105b8565b3480156102eb57600080fd5b506101ef6105df565b34801561030057600080fd5b5061029461066c565b34801561031557600080fd5b506101cb610675565b6101ef6004803603602081101561033457600080fd5b5035610684565b34801561034757600080fd5b506101656004803603602081101561035e57600080fd5b50356001600160a01b03166106fe565b34801561037a57600080fd5b506101cb610710565b34801561038f57600080fd5b5061016561071f565b3480156103a457600080fd5b506101ef610725565b3480156103b957600080fd5b506101ef61079e565b3480156103ce57600080fd5b506101cb610817565b3480156103e357600080fd5b506101ef600480360360208110156103fa57600080fd5b50356001600160a01b0316610826565b34801561041657600080fd5b506102246004803603602081101561042d57600080fd5b503561085f565b34801561044057600080fd5b506101ef610899565b6101ef610924565b34801561045d57600080fd5b506101cb610952565b6004805460408051633fabe5a360e21b8152905160009384936001600160a01b03169263feaf968c928183019260a092829003018186803b1580156104aa57600080fd5b505afa1580156104be573d6000803e3d6000fd5b505050506040513d60a08110156104d457600080fd5b50602001516006549091506402540be4008202906000908290670de0b6b3a764000002816104fe57fe5b04935050505090565b4790565b6000610515610466565b600655919050565b6005546001600160a01b031681565b6005546001600160a01b0316331461054357600080fd5b60405133904780156108fc02916000818181858888f1935050505015801561056f573d6000803e3d6000fd5b50565b6008602052600090815260409020805460018201546002909201546001600160a01b03909116919083565b60006020819052908152604090205481565b60095460ff1681565b600281815481106105c557fe5b6000918252602090912001546001600160a01b0316905081565b6003546001600160a01b031633146105f657600080fd5b600360095460ff16600681111561060957fe5b14610656576040805162461bcd60e51b815260206004820152601860248201527710d85b89dd081a5cdcdd59481b995dc81cdd5adcc81e595d60421b604482015290519081900360640190fd5b600980546001919060ff191682805b0217905550565b60095460ff1690565b6004546001600160a01b031681565b600061068f8261050b565b90503481146106e5576040805162461bcd60e51b815260206004820152601e60248201527f53656e642074686520636f727265637420616d6f756e74206f66206574680000604482015290519081900360640190fd5b5050336000908152602081905260409020805434019055565b60016020526000908152604090205481565b6005546001600160a01b031690565b60065481565b6003546001600160a01b0316331461073c57600080fd5b600260095460ff16600681111561074f57fe5b1461078a576040805162461bcd60e51b8152602060048083019190915260248201526315195cdd60e21b604482015290519081900360640190fd5b600980546000919060ff1916600183610665565b6003546001600160a01b031633146107b557600080fd5b600060095460ff1660068111156107c857fe5b14610803576040805162461bcd60e51b8152602060048083019190915260248201526315195cdd60e21b604482015290519081900360640190fd5b600980546004919060ff1916600183610665565b6003546001600160a01b031690565b6003546001600160a01b0316331461083d57600080fd5b600580546001600160a01b0319166001600160a01b0392909216919091179055565b6007818154811061086c57fe5b60009182526020909120600390910201805460018201546002909201546001600160a01b03909116925083565b6003546001600160a01b031633146108b057600080fd5b600160095460ff1660068111156108c357fe5b14610910576040805162461bcd60e51b815260206004820152601860248201527710d85b89dd081a5cdcdd59481b995dc81cdd5adcc81e595d60421b604482015290519081900360640190fd5b600980546002919060ff1916600183610665565b6005546001600160a01b0316331461093b57600080fd5b336000908152600160205260409020805434019055565b6003546001600160a01b03168156fea264697066735822122090c43ba92edb6fe28723b5cd4c7347f60c3e6bf2c0e276ab67cd553ee5a8bf7364736f6c634300060c0033",
  "bytecodeSha1": "d3a645662f7f14e994015f3d6860f9fe122576b6",
  "compiler": {
    "evm_version": "istanbul",
    "optimizer": {
      "enabled": true,
      "runs": 200
    },
    "version": "0.6.12+commit.27d51765"
  },
  "contractName": "Sukuk",
  "language": "Solidity",
  "natspec": {
    "kind": "dev",
    "methods": {},
    "version": 1
  },
  "opcodes": "PUSH1 0x80 PUSH1 0x40 MSTORE PUSH1 0x4 CALLDATASIZE LT PUSH2 0x14B JUMPI PUSH1 0x0 CALLDATALOAD PUSH1 0xE0 SHR DUP1 PUSH4 0x7CE2A070 GT PUSH2 0xB6 JUMPI DUP1 PUSH4 0xB2E6B912 GT PUSH2 0x6F JUMPI DUP1 PUSH4 0xB2E6B912 EQ PUSH2 0x3C2 JUMPI DUP1 PUSH4 0xBF859271 EQ PUSH2 0x3D7 JUMPI DUP1 PUSH4 0xCC5DD07C EQ PUSH2 0x40A JUMPI DUP1 PUSH4 0xCE00D813 EQ PUSH2 0x434 JUMPI DUP1 PUSH4 0xD0E30DB0 EQ PUSH2 0x449 JUMPI DUP1 PUSH4 0xF851A440 EQ PUSH2 0x451 JUMPI PUSH2 0x14B JUMP JUMPDEST DUP1 PUSH4 0x7CE2A070 EQ PUSH2 0x31E JUMPI DUP1 PUSH4 0x7E72EE67 EQ PUSH2 0x33B JUMPI DUP1 PUSH4 0x84B560F3 EQ PUSH2 0x36E JUMPI DUP1 PUSH4 0x86E44716 EQ PUSH2 0x383 JUMPI DUP1 PUSH4 0x8A2FEE73 EQ PUSH2 0x398 JUMPI DUP1 PUSH4 0x9E3578D7 EQ PUSH2 0x3AD JUMPI PUSH2 0x14B JUMP JUMPDEST DUP1 PUSH4 0x3E47D6F3 GT PUSH2 0x108 JUMPI DUP1 PUSH4 0x3E47D6F3 EQ PUSH2 0x24C JUMPI DUP1 PUSH4 0x3FE8804C EQ PUSH2 0x27F JUMPI DUP1 PUSH4 0x3FEB5F2B EQ PUSH2 0x2B5 JUMPI DUP1 PUSH4 0x45BCAD9A EQ PUSH2 0x2DF JUMPI DUP1 PUSH4 0x6D4CE63C EQ PUSH2 0x2F4 JUMPI DUP1 PUSH4 0x741BEF1A EQ PUSH2 0x309 JUMPI PUSH2 0x14B JUMP JUMPDEST DUP1 PUSH4 0x9BC33A7 EQ PUSH2 0x150 JUMPI DUP1 PUSH4 0x12065FE0 EQ PUSH2 0x177 JUMPI DUP1 PUSH4 0x21F5E9E4 EQ PUSH2 0x18C JUMPI DUP1 PUSH4 0x340D02FE EQ PUSH2 0x1B6 JUMPI DUP1 PUSH4 0x3CCFD60B EQ PUSH2 0x1E7 JUMPI DUP1 PUSH4 0x3D51D601 EQ PUSH2 0x1F1 JUMPI JUMPDEST PUSH1 0x0 DUP1 REVERT JUMPDEST CALLVALUE DUP1 ISZERO PUSH2 0x15C JUMPI PUSH1 0x0 DUP1 REVERT JUMPDEST POP PUSH2 0x165 PUSH2 0x466 JUMP JUMPDEST PUSH1 0x40 DUP1 MLOAD SWAP2 DUP3 MSTORE MLOAD SWAP1 DUP2 SWAP1 SUB PUSH1 0x20 ADD SWAP1 RETURN JUMPDEST CALLVALUE DUP1 ISZERO PUSH2 0x183 JUMPI PUSH1 0x0 DUP1 REVERT JUMPDEST POP PUSH2 0x165 PUSH2 0x507 JUMP JUMPDEST CALLVALUE DUP1 ISZERO PUSH2 0x198 JUMPI PUSH1 0x0 DUP1 REVERT JUMPDEST POP PUSH2 0x165 PUSH1 0x4 DUP1 CALLDATASIZE SUB PUSH1 0x20 DUP2 LT ISZERO PUSH2 0x1AF JUMPI PUSH1 0x0 DUP1 REVERT JUMPDEST POP CALLDATALOAD PUSH2 0x50B JUMP JUMPDEST CALLVALUE DUP1 ISZERO PUSH2 0x1C2 JUMPI PUSH1 0x0 DUP1 REVERT JUMPDEST POP PUSH2 0x1CB PUSH2 0x51D JUMP JUMPDEST PUSH1 0x40 DUP1 MLOAD PUSH1 0x1 PUSH1 0x1 PUSH1 0xA0 SHL SUB SWAP1 SWAP3 AND DUP3 MSTORE MLOAD SWAP1 DUP2 SWAP1 SUB PUSH1 0x20 ADD SWAP1 RETURN JUMPDEST PUSH2 0x1EF PUSH2 0x52C JUMP JUMPDEST STOP JUMPDEST CALLVALUE DUP1 ISZERO PUSH2 0x1FD JUMPI PUSH1 0x0 DUP1 REVERT JUMPDEST POP PUSH2 0x224 PUSH1 0x4 DUP1 CALLDATASIZE SUB PUSH1 0x20 DUP2 LT ISZERO PUSH2 0x214 JUMPI PUSH1 0x0 DUP1 REVERT JUMPDEST POP CALLDATALOAD PUSH1 0x1 PUSH1 0x1 PUSH1 0xA0 SHL SUB AND PUSH2 0x572 JUMP JUMPDEST PUSH1 0x40 DUP1 MLOAD PUSH1 0x1 PUSH1 0x1 PUSH1 0xA0 SHL SUB SWAP1 SWAP5 AND DUP5 MSTORE PUSH1 0x20 DUP5 ADD SWAP3 SWAP1 SWAP3 MSTORE DUP3 DUP3 ADD MSTORE MLOAD SWAP1 DUP2 SWAP1 SUB PUSH1 0x60 ADD SWAP1 RETURN JUMPDEST CALLVALUE DUP1 ISZERO PUSH2 0x258 JUMPI PUSH1 0x0 DUP1 REVERT JUMPDEST POP PUSH2 0x165 PUSH1 0x4 DUP1 CALLDATASIZE SUB PUSH1 0x20 DUP2 LT ISZERO PUSH2 0x26F JUMPI PUSH1 0x0 DUP1 REVERT JUMPDEST POP CALLDATALOAD PUSH1 0x1 PUSH1 0x1 PUSH1 0xA0 SHL SUB AND PUSH2 0x59D JUMP JUMPDEST CALLVALUE DUP1 ISZERO PUSH2 0x28B JUMPI PUSH1 0x0 DUP1 REVERT JUMPDEST POP PUSH2 0x294 PUSH2 0x5AF JUMP JUMPDEST PUSH1 0x40 MLOAD DUP1 DUP3 PUSH1 0x6 DUP2 GT ISZERO PUSH2 0x2A4 JUMPI INVALID JUMPDEST DUP2 MSTORE PUSH1 0x20 ADD SWAP2 POP POP PUSH1 0x40 MLOAD DUP1 SWAP2 SUB SWAP1 RETURN JUMPDEST CALLVALUE DUP1 ISZERO PUSH2 0x2C1 JUMPI PUSH1 0x0 DUP1 REVERT JUMPDEST POP PUSH2 0x1CB PUSH1 0x4 DUP1 CALLDATASIZE SUB PUSH1 0x20 DUP2 LT ISZERO PUSH2 0x2D8 JUMPI PUSH1 0x0 DUP1 REVERT JUMPDEST POP CALLDATALOAD PUSH2 0x5B8 JUMP JUMPDEST CALLVALUE DUP1 ISZERO PUSH2 0x2EB JUMPI PUSH1 0x0 DUP1 REVERT JUMPDEST POP PUSH2 0x1EF PUSH2 0x5DF JUMP JUMPDEST CALLVALUE DUP1 ISZERO PUSH2 0x300 JUMPI PUSH1 0x0 DUP1 REVERT JUMPDEST POP PUSH2 0x294 PUSH2 0x66C JUMP JUMPDEST CALLVALUE DUP1 ISZERO PUSH2 0x315 JUMPI PUSH1 0x0 DUP1 REVERT JUMPDEST POP PUSH2 0x1CB PUSH2 0x675 JUMP JUMPDEST PUSH2 0x1EF PUSH1 0x4 DUP1 CALLDATASIZE SUB PUSH1 0x20 DUP2 LT ISZERO PUSH2 0x334 JUMPI PUSH1 0x0 DUP1 REVERT JUMPDEST POP CALLDATALOAD PUSH2 0x684 JUMP JUMPDEST CALLVALUE DUP1 ISZERO PUSH2 0x347 JUMPI PUSH1 0x0 DUP1 REVERT JUMPDEST POP PUSH2 0x165 PUSH1 0x4 DUP1 CALLDATASIZE SUB PUSH1 0x20 DUP2 LT ISZERO PUSH2 0x35E JUMPI PUSH1 0x0 DUP1 REVERT JUMPDEST POP CALLDATALOAD PUSH1 0x1 PUSH1 0x1 PUSH1 0xA0 SHL SUB AND PUSH2 0x6FE JUMP JUMPDEST CALLVALUE DUP1 ISZERO PUSH2 0x37A JUMPI PUSH1 0x0 DUP1 REVERT JUMPDEST POP PUSH2 0x1CB PUSH2 0x710 JUMP JUMPDEST CALLVALUE DUP1 ISZERO PUSH2 0x38F JUMPI PUSH1 0x0 DUP1 REVERT JUMPDEST POP PUSH2 0x165 PUSH2 0x71F JUMP JUMPDEST CALLVALUE DUP1 ISZERO PUSH2 0x3A4 JUMPI PUSH1 0x0 DUP1 REVERT JUMPDEST POP PUSH2 0x1EF PUSH2 0x725 JUMP JUMPDEST CALLVALUE DUP1 ISZERO PUSH2 0x3B9 JUMPI PUSH1 0x0 DUP1 REVERT JUMPDEST POP PUSH2 0x1EF PUSH2 0x79E JUMP JUMPDEST CALLVALUE DUP1 ISZERO PUSH2 0x3CE JUMPI PUSH1 0x0 DUP1 REVERT JUMPDEST POP PUSH2 0x1CB PUSH2 0x817 JUMP JUMPDEST CALLVALUE DUP1 ISZERO PUSH2 0x3E3 JUMPI PUSH1 0x0 DUP1 REVERT JUMPDEST POP PUSH2 0x1EF PUSH1 0x4 DUP1 CALLDATASIZE SUB PUSH1 0x20 DUP2 LT ISZERO PUSH2 0x3FA JUMPI PUSH1 0x0 DUP1 REVERT JUMPDEST POP CALLDATALOAD PUSH1 0x1 PUSH1 0x1 PUSH1 0xA0 SHL SUB AND PUSH2 0x826 JUMP JUMPDEST CALLVALUE DUP1 ISZERO PUSH2 0x416 JUMPI PUSH1 0x0 DUP1 REVERT JUMPDEST POP PUSH2 0x224 PUSH1 0x4 DUP1 CALLDATASIZE SUB PUSH1 0x20 DUP2 LT ISZERO PUSH2 0x42D JUMPI PUSH1 0x0 DUP1 REVERT JUMPDEST POP CALLDATALOAD PUSH2 0x85F JUMP JUMPDEST CALLVALUE DUP1 ISZERO PUSH2 0x440 JUMPI PUSH1 0x0 DUP1 REVERT JUMPDEST POP PUSH2 0x1EF PUSH2 0x899 JUMP JUMPDEST PUSH2 0x1EF PUSH2 0x924 JUMP JUMPDEST CALLVALUE DUP1 ISZERO PUSH2 0x45D JUMPI PUSH1 0x0 DUP1 REVERT JUMPDEST POP PUSH2 0x1CB PUSH2 0x952 JUMP JUMPDEST PUSH1 0x4 DUP1 SLOAD PUSH1 0x40 DUP1 MLOAD PUSH4 0x3FABE5A3 PUSH1 0xE2 SHL DUP2 MSTORE SWAP1 MLOAD PUSH1 0x0 SWAP4 DUP5 SWAP4 PUSH1 0x1 PUSH1 0x1 PUSH1 0xA0 SHL SUB AND SWAP3 PUSH4 0xFEAF968C SWAP3 DUP2 DUP4 ADD SWAP3 PUSH1 0xA0 SWAP3 DUP3 SWAP1 SUB ADD DUP2 DUP7 DUP1 EXTCODESIZE ISZERO DUP1 ISZERO PUSH2 0x4AA JUMPI PUSH1 0x0 DUP1 REVERT JUMPDEST POP GAS STATICCALL ISZERO DUP1 ISZERO PUSH2 0x4BE JUMPI RETURNDATASIZE PUSH1 0x0 DUP1 RETURNDATACOPY RETURNDATASIZE PUSH1 0x0 REVERT JUMPDEST POP POP POP POP PUSH1 0x40 MLOAD RETURNDATASIZE PUSH1 0xA0 DUP2 LT ISZERO PUSH2 0x4D4 JUMPI PUSH1 0x0 DUP1 REVERT JUMPDEST POP PUSH1 0x20 ADD MLOAD PUSH1 0x6 SLOAD SWAP1 SWAP2 POP PUSH5 0x2540BE400 DUP3 MUL SWAP1 PUSH1 0x0 SWAP1 DUP3 SWAP1 PUSH8 0xDE0B6B3A7640000 MUL DUP2 PUSH2 0x4FE JUMPI INVALID JUMPDEST DIV SWAP4 POP POP POP POP SWAP1 JUMP JUMPDEST SELFBALANCE SWAP1 JUMP JUMPDEST PUSH1 0x0 PUSH2 0x515 PUSH2 0x466 JUMP JUMPDEST PUSH1 0x6 SSTORE SWAP2 SWAP1 POP JUMP JUMPDEST PUSH1 0x5 SLOAD PUSH1 0x1 PUSH1 0x1 PUSH1 0xA0 SHL SUB AND DUP2 JUMP JUMPDEST PUSH1 0x5 SLOAD PUSH1 0x1 PUSH1 0x1 PUSH1 0xA0 SHL SUB AND CALLER EQ PUSH2 0x543 JUMPI PUSH1 0x0 DUP1 REVERT JUMPDEST PUSH1 0x40 MLOAD CALLER SWAP1 SELFBALANCE DUP1 ISZERO PUSH2 0x8FC MUL SWAP2 PUSH1 0x0 DUP2 DUP2 DUP2 DUP6 DUP9 DUP9 CALL SWAP4 POP POP POP POP ISZERO DUP1 ISZERO PUSH2 0x56F JUMPI RETURNDATASIZE PUSH1 0x0 DUP1 RETURNDATACOPY RETURNDATASIZE PUSH1 0x0 REVERT JUMPDEST POP JUMP JUMPDEST PUSH1 0x8 PUSH1 0x20 MSTORE PUSH1 0x0 SWAP1 DUP2 MSTORE PUSH1 0x40 SWAP1 KECCAK256 DUP1 SLOAD PUSH1 0x1 DUP3 ADD SLOAD PUSH1 0x2 SWAP1 SWAP3 ADD SLOAD PUSH1 0x1 PUSH1 0x1 PUSH1 0xA0 SHL SUB SWAP1 SWAP2 AND SWAP2 SWAP1 DUP4 JUMP JUMPDEST PUSH1 0x0 PUSH1 0x20 DUP2 SWAP1 MSTORE SWAP1 DUP2 MSTORE PUSH1 0x40 SWAP1 KECCAK256 SLOAD DUP2 JUMP JUMPDEST PUSH1 0x9 SLOAD PUSH1 0xFF AND DUP2 JUMP JUMPDEST PUSH1 0x2 DUP2 DUP2 SLOAD DUP2 LT PUSH2 0x5C5 JUMPI INVALID JUMPDEST PUSH1 0x0 SWAP2 DUP3 MSTORE PUSH1 0x20 SWAP1 SWAP2 KECCAK256 ADD SLOAD PUSH1 0x1 PUSH1 0x1 PUSH1 0xA0 SHL SUB AND SWAP1 POP DUP2 JUMP JUMPDEST PUSH1 0x3 SLOAD PUSH1 0x1 PUSH1 0x1 PUSH1 0xA0 SHL SUB AND CALLER EQ PUSH2 0x5F6 JUMPI PUSH1 0x0 DUP1 REVERT JUMPDEST PUSH1 0x3 PUSH1 0x9 SLOAD PUSH1 0xFF AND PUSH1 0x6 DUP2 GT ISZERO PUSH2 0x609 JUMPI INVALID JUMPDEST EQ PUSH2 0x656 JUMPI PUSH1 0x40 DUP1 MLOAD PUSH3 0x461BCD PUSH1 0xE5 SHL DUP2 MSTORE PUSH1 0x20 PUSH1 0x4 DUP3 ADD MSTORE PUSH1 0x18 PUSH1 0x24 DUP3 ADD MSTORE PUSH24 0x10D85B89DD081A5CDCDD59481B995DC81CDD5ADCC81E595D PUSH1 0x42 SHL PUSH1 0x44 DUP3 ADD MSTORE SWAP1 MLOAD SWAP1 DUP2 SWAP1 SUB PUSH1 0x64 ADD SWAP1 REVERT JUMPDEST PUSH1 0x9 DUP1 SLOAD PUSH1 0x1 SWAP2 SWAP1 PUSH1 0xFF NOT AND DUP3 DUP1 JUMPDEST MUL OR SWAP1 SSTORE POP JUMP JUMPDEST PUSH1 0x9 SLOAD PUSH1 0xFF AND SWAP1 JUMP JUMPDEST PUSH1 0x4 SLOAD PUSH1 0x1 PUSH1 0x1 PUSH1 0xA0 SHL SUB AND DUP2 JUMP JUMPDEST PUSH1 0x0 PUSH2 0x68F DUP3 PUSH2 0x50B JUMP JUMPDEST SWAP1 POP CALLVALUE DUP2 EQ PUSH2 0x6E5 JUMPI PUSH1 0x40 DUP1 MLOAD PUSH3 0x461BCD PUSH1 0xE5 SHL DUP2 MSTORE PUSH1 0x20 PUSH1 0x4 DUP3 ADD MSTORE PUSH1 0x1E PUSH1 0x24 DUP3 ADD MSTORE PUSH32 0x53656E642074686520636F727265637420616D6F756E74206F66206574680000 PUSH1 0x44 DUP3 ADD MSTORE SWAP1 MLOAD SWAP1 DUP2 SWAP1 SUB PUSH1 0x64 ADD SWAP1 REVERT JUMPDEST POP POP CALLER PUSH1 0x0 SWAP1 DUP2 MSTORE PUSH1 0x20 DUP2 SWAP1 MSTORE PUSH1 0x40 SWAP1 KECCAK256 DUP1 SLOAD CALLVALUE ADD SWAP1 SSTORE JUMP JUMPDEST PUSH1 0x1 PUSH1 0x20 MSTORE PUSH1 0x0 SWAP1 DUP2 MSTORE PUSH1 0x40 SWAP1 KECCAK256 SLOAD DUP2 JUMP JUMPDEST PUSH1 0x5 SLOAD PUSH1 0x1 PUSH1 0x1 PUSH1 0xA0 SHL SUB AND SWAP1 JUMP JUMPDEST PUSH1 0x6 SLOAD DUP2 JUMP JUMPDEST PUSH1 0x3 SLOAD PUSH1 0x1 PUSH1 0x1 PUSH1 0xA0 SHL SUB AND CALLER EQ PUSH2 0x73C JUMPI PUSH1 0x0 DUP1 REVERT JUMPDEST PUSH1 0x2 PUSH1 0x9 SLOAD PUSH1 0xFF AND PUSH1 0x6 DUP2 GT ISZERO PUSH2 0x74F JUMPI INVALID JUMPDEST EQ PUSH2 0x78A JUMPI PUSH1 0x40 DUP1 MLOAD PUSH3 0x461BCD PUSH1 0xE5 SHL DUP2 MSTORE PUSH1 0x20 PUSH1 0x4 DUP1 DUP4 ADD SWAP2 SWAP1 SWAP2 MSTORE PUSH1 0x24 DUP3 ADD MSTORE PUSH4 0x15195CDD PUSH1 0xE2 SHL PUSH1 0x44 DUP3 ADD MSTORE SWAP1 MLOAD SWAP1 DUP2 SWAP1 SUB PUSH1 0x64 ADD SWAP1 REVERT JUMPDEST PUSH1 0x9 DUP1 SLOAD PUSH1 0x0 SWAP2 SWAP1 PUSH1 0xFF NOT AND PUSH1 0x1 DUP4 PUSH2 0x665 JUMP JUMPDEST PUSH1 0x3 SLOAD PUSH1 0x1 PUSH1 0x1 PUSH1 0xA0 SHL SUB AND CALLER EQ PUSH2 0x7B5 JUMPI PUSH1 0x0 DUP1 REVERT JUMPDEST PUSH1 0x0 PUSH1 0x9 SLOAD PUSH1 0xFF AND PUSH1 0x6 DUP2 GT ISZERO PUSH2 0x7C8 JUMPI INVALID JUMPDEST EQ PUSH2 0x803 JUMPI PUSH1 0x40 DUP1 MLOAD PUSH3 0x461BCD PUSH1 0xE5 SHL DUP2 MSTORE PUSH1 0x20 PUSH1 0x4 DUP1 DUP4 ADD SWAP2 SWAP1 SWAP2 MSTORE PUSH1 0x24 DUP3 ADD MSTORE PUSH4 0x15195CDD PUSH1 0xE2 SHL PUSH1 0x44 DUP3 ADD MSTORE SWAP1 MLOAD SWAP1 DUP2 SWAP1 SUB PUSH1 0x64 ADD SWAP1 REVERT JUMPDEST PUSH1 0x9 DUP1 SLOAD PUSH1 0x4 SWAP2 SWAP1 PUSH1 0xFF NOT AND PUSH1 0x1 DUP4 PUSH2 0x665 JUMP JUMPDEST PUSH1 0x3 SLOAD PUSH1 0x1 PUSH1 0x1 PUSH1 0xA0 SHL SUB AND SWAP1 JUMP JUMPDEST PUSH1 0x3 SLOAD PUSH1 0x1 PUSH1 0x1 PUSH1 0xA0 SHL SUB AND CALLER EQ PUSH2 0x83D JUMPI PUSH1 0x0 DUP1 REVERT JUMPDEST PUSH1 0x5 DUP1 SLOAD PUSH1 0x1 PUSH1 0x1 PUSH1 0xA0 SHL SUB NOT AND PUSH1 0x1 PUSH1 0x1 PUSH1 0xA0 SHL SUB SWAP3 SWAP1 SWAP3 AND SWAP2 SWAP1 SWAP2 OR SWAP1 SSTORE JUMP JUMPDEST PUSH1 0x7 DUP2 DUP2 SLOAD DUP2 LT PUSH2 0x86C JUMPI INVALID JUMPDEST PUSH1 0x0 SWAP2 DUP3 MSTORE PUSH1 0x20 SWAP1 SWAP2 KECCAK256 PUSH1 0x3 SWAP1 SWAP2 MUL ADD DUP1 SLOAD PUSH1 0x1 DUP3 ADD SLOAD PUSH1 0x2 SWAP1 SWAP3 ADD SLOAD PUSH1 0x1 PUSH1 0x1 PUSH1 0xA0 SHL SUB SWAP1 SWAP2 AND SWAP3 POP DUP4 JUMP JUMPDEST PUSH1 0x3 SLOAD PUSH1 0x1 PUSH1 0x1 PUSH1 0xA0 SHL SUB AND CALLER EQ PUSH2 0x8B0 JUMPI PUSH1 0x0 DUP1 REVERT JUMPDEST PUSH1 0x1 PUSH1 0x9 SLOAD PUSH1 0xFF AND PUSH1 0x6 DUP2 GT ISZERO PUSH2 0x8C3 JUMPI INVALID JUMPDEST EQ PUSH2 0x910 JUMPI PUSH1 0x40 DUP1 MLOAD PUSH3 0x461BCD PUSH1 0xE5 SHL DUP2 MSTORE PUSH1 0x20 PUSH1 0x4 DUP3 ADD MSTORE PUSH1 0x18 PUSH1 0x24 DUP3 ADD MSTORE PUSH24 0x10D85B89DD081A5CDCDD59481B995DC81CDD5ADCC81E595D PUSH1 0x42 SHL PUSH1 0x44 DUP3 ADD MSTORE SWAP1 MLOAD SWAP1 DUP2 SWAP1 SUB PUSH1 0x64 ADD SWAP1 REVERT JUMPDEST PUSH1 0x9 DUP1 SLOAD PUSH1 0x2 SWAP2 SWAP1 PUSH1 0xFF NOT AND PUSH1 0x1 DUP4 PUSH2 0x665 JUMP JUMPDEST PUSH1 0x5 SLOAD PUSH1 0x1 PUSH1 0x1 PUSH1 0xA0 SHL SUB AND CALLER EQ PUSH2 0x93B JUMPI PUSH1 0x0 DUP1 REVERT JUMPDEST CALLER PUSH1 0x0 SWAP1 DUP2 MSTORE PUSH1 0x1 PUSH1 0x20 MSTORE PUSH1 0x40 SWAP1 KECCAK256 DUP1 SLOAD CALLVALUE ADD SWAP1 SSTORE JUMP JUMPDEST PUSH1 0x3 SLOAD PUSH1 0x1 PUSH1 0x1 PUSH1 0xA0 SHL SUB AND DUP2 JUMP INVALID LOG2 PUSH5 0x6970667358 0x22 SLT KECCAK256 SWAP1 0xC4 EXTCODESIZE 0xA9 0x2E 0xDB PUSH16 0xE28723B5CD4C7347F60C3E6BF2C0E276 0xAB PUSH8 0xCD553EE5A8BF7364 PUSH20 0x6F6C634300060C00330000000000000000000000 ",
  "sha1": "1d511c288d7b70b8915f59034263591e729643d0",
  "source": "// SPDX-License-Identifier: MIT\n\npragma solidity ^0.6.0;\n\nimport \"@chainlink/contracts/src/v0.6/interfaces/AggregatorV3Interface.sol\";\n\n\n// This one for now to track what each investor/ I will look at the implementation later\n\n\ncontract Sukuk{\n\n    struct suk_investor{\n        address investoraddress;\n        uint256 number_of_sukuk;\n        uint256 value;\n\n    }\n\n\n\n\n    mapping(address => uint256) public addressToAmountFunded;\n    mapping(address => uint256) public addressToAmountDeposited;\n    address payable[] public investors;\n    address public  admin;\n    AggregatorV3Interface public priceFeed;\n    address payable public Ijaara ;\n    uint public suk_price;\n    suk_investor[] public suk_investors;\n\n\n\n    mapping(address => suk_investor) public investor_test;\n\n\n\n\n    //Sukuk State\n    enum SUKUK_STATE{\n        COOLDOWN,   //This state will be when the contract is in effect however it doesn't have any tasks to excute\n        OPEN,\n        ISSUE,\n        CLOSEED,\n        \n        REDEEM_PERIOD,\n        TERM_1,\n        TERM_2\n    }\n    SUKUK_STATE public sukuk_state;\n\n\n    function get() public view returns(SUKUK_STATE){\n        return sukuk_state;\n    }\n\n\n\n\n\n\n\n\n\n\n\n    //added an argument to constructor for testing\n    constructor(\n        address _priceFeed\n      ) \n    public {\n        priceFeed = AggregatorV3Interface(_priceFeed);\n        // Admin will be the contract sender for now\n        admin = msg.sender;\n        sukuk_state = SUKUK_STATE.CLOSEED;\n        suk_price = 100;\n\n    }\n\n\n    function get_expetected_price(uint256 _numberOfSukuk) public returns (uint256 exptectedPrice) {\n        suk_price = getEntranceFee();\n    }\n\n    function getEntranceFee() public view returns (uint256) {\n        (, int256 price, , , ) = priceFeed.latestRoundData();\n        uint256 adjustedPrice = uint256(price) * 10**10; // 18 decimals\n        // $50, $2,000 / ETH\n        // 50/2,000\n        // 50 * 100000 / 2000\n        uint256 costToEnter = (suk_price * 10**18) / adjustedPrice;\n        return costToEnter;\n    }\n\n\n\n\n    function     startSukuk( ) public onlyAdmin{\n            require(\n            sukuk_state == SUKUK_STATE.CLOSEED,\n            \"Can't issue new suks yet\"\n        );\n\n\n\n\n\n        sukuk_state = SUKUK_STATE.OPEN;\n\n    }\n    \n\n\n\n\n    function  IssueSukuk( ) public onlyAdmin{\n        require(\n            sukuk_state == SUKUK_STATE.OPEN,\n            \"Can't issue new suks yet\"\n        );\n\n        sukuk_state = SUKUK_STATE.ISSUE;\n\n    }\n\n    function EndIssue() public onlyAdmin{\n        require(\n            sukuk_state == SUKUK_STATE.ISSUE,\n            \"Test\"\n        );\n\n        sukuk_state = SUKUK_STATE.COOLDOWN;\n    }\n\n    function startRedeem() public onlyAdmin{\n        require(\n            sukuk_state == SUKUK_STATE.COOLDOWN,\n            \"Test\"\n        );\n\n        sukuk_state = SUKUK_STATE.REDEEM_PERIOD;\n    }\n\n\n\n\n\n    \n\n    function purchase_suk(uint256 _number_of_sukuk) public payable{\n\n\n\n        // Right now it only tracks the amount and address only.\n        // Later I will need to take the number of sukuk as a factor and change how it works\n        // It should take the number of sukuk and checks if the sent amount is correct or not \n        // Not lower or higher\n\n\n        //suk_investor memory new_investor = msg.sender;\n        uint expectedPrice = get_expetected_price(_number_of_sukuk);\n        require(\n            expectedPrice == msg.value,\n            \"Send the correct amount of eth\"\n        );\n\n\n       // new_investor.investoraddress = msg.sender;\n        //new_investor.number_of_sukuk = _number_of_sukuk;\n       // new_investor.value = msg.value;\n\n\n       // suk_investors.push(new_investor);\n\n\n\n\n\n\n\n        addressToAmountFunded[msg.sender] += msg.value;\n       // investors.push(payable(msg.sender));\n    }\n\n\n\n\n    function setIjaara(address payable  _Ijaara ) public onlyAdmin{\n        Ijaara = _Ijaara;\n        \n    }\n\n\n\n\n\n\n\n\n    modifier onlyAdmin(){\n        require(msg.sender == admin);\n        _;\n    }\n\n    modifier onlyIjaara(){\n        require(msg.sender == Ijaara);\n        _;\n    }\n\n\n\n    function getAdminAddress( ) view public returns (address ) {\n\n        return admin;\n    }\n    function getIjaaraAddress( ) view public returns (address ) {\n        return Ijaara;\n    }\n\n    function withdraw() public payable onlyIjaara{\n        msg.sender.transfer(address(this).balance);\n\n       /* for (\n            uint256 funderIndex = 0;\n            funderIndex < investors.length;\n            funderIndex++\n        ) {\n            address funder = investors[funderIndex];\n            addressToAmountFunded[funder] = 0;\n        }\n    */\n    }\n\n    //function redeem() public payable{}\n\n    function deposit() public payable onlyIjaara{\n        addressToAmountDeposited[msg.sender] +=  msg.value;\n\n    }\n    function getBalance( ) view public returns (uint256 balance) {\n        return address(this).balance;\n        \n    }\n\n\n}",
  "sourcePath": "contracts/Purchese.sol",
  "type": "contract"
}