{
  "abi": [
    {
      "inputs": [
        {
          "internalType": "address",
          "name": "_priceFeed",
          "type": "address"
        }
      ],
      "stateMutability": "nonpayable",
      "type": "constructor"
    },
    {
      "inputs": [],
      "name": "EndIssue",
      "outputs": [],
      "stateMutability": "nonpayable",
      "type": "function"
    },
    {
      "inputs": [],
      "name": "Ijaara",
      "outputs": [
        {
          "internalType": "address payable",
          "name": "",
          "type": "address"
        }
      ],
      "stateMutability": "view",
      "type": "function"
    },
    {
      "inputs": [],
      "name": "IssueSukuk",
      "outputs": [],
      "stateMutability": "nonpayable",
      "type": "function"
    },
    {
      "inputs": [
        {
          "internalType": "address",
          "name": "",
          "type": "address"
        }
      ],
      "name": "addressToAmountFunded",
      "outputs": [
        {
          "internalType": "uint256",
          "name": "",
          "type": "uint256"
        }
      ],
      "stateMutability": "view",
      "type": "function"
    },
    {
      "inputs": [],
      "name": "admin",
      "outputs": [
        {
          "internalType": "address",
          "name": "",
          "type": "address"
        }
      ],
      "stateMutability": "view",
      "type": "function"
    },
    {
      "inputs": [],
      "name": "get",
      "outputs": [
        {
          "internalType": "enum Sukuk.SUKUK_STATE",
          "name": "",
          "type": "uint8"
        }
      ],
      "stateMutability": "view",
      "type": "function"
    },
    {
      "inputs": [
        {
          "internalType": "uint256",
          "name": "",
          "type": "uint256"
        }
      ],
      "name": "investors",
      "outputs": [
        {
          "internalType": "address payable",
          "name": "",
          "type": "address"
        }
      ],
      "stateMutability": "view",
      "type": "function"
    },
    {
      "inputs": [],
      "name": "priceFeed",
      "outputs": [
        {
          "internalType": "contract AggregatorV3Interface",
          "name": "",
          "type": "address"
        }
      ],
      "stateMutability": "view",
      "type": "function"
    },
    {
      "inputs": [
        {
          "internalType": "uint256",
          "name": "_number_of_sukuk",
          "type": "uint256"
        }
      ],
      "name": "purchase_suk",
      "outputs": [],
      "stateMutability": "payable",
      "type": "function"
    },
    {
      "inputs": [
        {
          "internalType": "address payable",
          "name": "_Ijaara",
          "type": "address"
        }
      ],
      "name": "setIjaara",
      "outputs": [],
      "stateMutability": "nonpayable",
      "type": "function"
    },
    {
      "inputs": [],
      "name": "startRedeem",
      "outputs": [],
      "stateMutability": "nonpayable",
      "type": "function"
    },
    {
      "inputs": [],
      "name": "startSukuk",
      "outputs": [],
      "stateMutability": "nonpayable",
      "type": "function"
    },
    {
      "inputs": [],
      "name": "sukuk_state",
      "outputs": [
        {
          "internalType": "enum Sukuk.SUKUK_STATE",
          "name": "",
          "type": "uint8"
        }
      ],
      "stateMutability": "view",
      "type": "function"
    },
    {
      "inputs": [],
      "name": "withdraw",
      "outputs": [],
      "stateMutability": "payable",
      "type": "function"
    }
  ],
  "bytecode": "608060405234801561001057600080fd5b506040516107403803806107408339818101604052602081101561003357600080fd5b5051600380546001600160a01b0383166001600160a01b031991821617825560028054909116331790556004805460ff60a01b1916600160a01b830217905550506106bd806100836000396000f3fe6080604052600436106100dd5760003560e01c8063741bef1a1161007f5780639e3578d7116100595780639e3578d714610236578063bf8592711461024b578063ce00d8131461027e578063f851a44014610293576100dd565b8063741bef1a146101ef5780637ce2a070146102045780638a2fee7314610221576100dd565b80633fe8804c116100bb5780633fe8804c146101625780633feb5f2b1461019b57806345bcad9a146101c55780636d4ce63c146101da576100dd565b8063340d02fe146100e25780633ccfd60b146101135780633e47d6f31461011d575b600080fd5b3480156100ee57600080fd5b506100f76102a8565b604080516001600160a01b039092168252519081900360200190f35b61011b6102b7565b005b34801561012957600080fd5b506101506004803603602081101561014057600080fd5b50356001600160a01b0316610344565b60408051918252519081900360200190f35b34801561016e57600080fd5b50610177610356565b6040518082600681111561018757fe5b60ff16815260200191505060405180910390f35b3480156101a757600080fd5b506100f7600480360360208110156101be57600080fd5b5035610366565b3480156101d157600080fd5b5061011b61038d565b3480156101e657600080fd5b50610177610428565b3480156101fb57600080fd5b506100f7610438565b61011b6004803603602081101561021a57600080fd5b5035610447565b34801561022d57600080fd5b5061011b61049d565b34801561024257600080fd5b5061011b610523565b34801561025757600080fd5b5061011b6004803603602081101561026e57600080fd5b50356001600160a01b03166105a7565b34801561028a57600080fd5b5061011b6105e0565b34801561029f57600080fd5b506100f7610678565b6004546001600160a01b031681565b6002546001600160a01b031633146102ce57600080fd5b60405133904780156108fc02916000818181858888f193505050501580156102fa573d6000803e3d6000fd5b5060005b6001548110156103415760006001828154811061031757fe5b60009182526020808320909101546001600160a01b031682528190526040812055506001016102fe565b50565b60006020819052908152604090205481565b600454600160a01b900460ff1681565b6001818154811061037357fe5b6000918252602090912001546001600160a01b0316905081565b6002546001600160a01b031633146103a457600080fd5b6003600454600160a01b900460ff1660068111156103be57fe5b1461040b576040805162461bcd60e51b815260206004820152601860248201527710d85b89dd081a5cdcdd59481b995dc81cdd5adcc81e595d60421b604482015290519081900360640190fd5b600480546001919060ff60a01b1916600160a01b835b0217905550565b600454600160a01b900460ff1690565b6003546001600160a01b031681565b5033600081815260208190526040812080543401905560018054808201825591527fb10e2d527612073b26eecdfd717e6a320cf44b4afac2b0732d9fcbe2b7fa0cf60180546001600160a01b0319169091179055565b6002546001600160a01b031633146104b457600080fd5b6002600454600160a01b900460ff1660068111156104ce57fe5b14610509576040805162461bcd60e51b8152602060048083019190915260248201526315195cdd60e21b604482015290519081900360640190fd5b600480546000919060ff60a01b1916600160a01b83610421565b6002546001600160a01b0316331461053a57600080fd5b6000600454600160a01b900460ff16600681111561055457fe5b1461058f576040805162461bcd60e51b8152602060048083019190915260248201526315195cdd60e21b604482015290519081900360640190fd5b60048054819060ff60a01b1916600160a01b82610421565b6002546001600160a01b031633146105be57600080fd5b600480546001600160a01b0319166001600160a01b0392909216919091179055565b6002546001600160a01b031633146105f757600080fd5b6001600454600160a01b900460ff16600681111561061157fe5b1461065e576040805162461bcd60e51b815260206004820152601860248201527710d85b89dd081a5cdcdd59481b995dc81cdd5adcc81e595d60421b604482015290519081900360640190fd5b600480546002919060ff60a01b1916600160a01b83610421565b6002546001600160a01b03168156fea2646970667358221220e57f9fb3e792c9c2308c4006eb904bdc73f74e68f7d75d8a01b74e624cd9475964736f6c63430006000033",
  "bytecodeSha1": "428d6426d2953a6fbd11135508c60017629fd260",
  "compiler": {
    "evm_version": "istanbul",
    "optimizer": {
      "enabled": true,
      "runs": 200
    },
    "version": "0.6.0+commit.26b70077"
  },
  "contractName": "Sukuk",
  "language": "Solidity",
  "natspec": {
    "methods": {}
  },
  "opcodes": "PUSH1 0x80 PUSH1 0x40 MSTORE PUSH1 0x4 CALLDATASIZE LT PUSH2 0xDD JUMPI PUSH1 0x0 CALLDATALOAD PUSH1 0xE0 SHR DUP1 PUSH4 0x741BEF1A GT PUSH2 0x7F JUMPI DUP1 PUSH4 0x9E3578D7 GT PUSH2 0x59 JUMPI DUP1 PUSH4 0x9E3578D7 EQ PUSH2 0x236 JUMPI DUP1 PUSH4 0xBF859271 EQ PUSH2 0x24B JUMPI DUP1 PUSH4 0xCE00D813 EQ PUSH2 0x27E JUMPI DUP1 PUSH4 0xF851A440 EQ PUSH2 0x293 JUMPI PUSH2 0xDD JUMP JUMPDEST DUP1 PUSH4 0x741BEF1A EQ PUSH2 0x1EF JUMPI DUP1 PUSH4 0x7CE2A070 EQ PUSH2 0x204 JUMPI DUP1 PUSH4 0x8A2FEE73 EQ PUSH2 0x221 JUMPI PUSH2 0xDD JUMP JUMPDEST DUP1 PUSH4 0x3FE8804C GT PUSH2 0xBB JUMPI DUP1 PUSH4 0x3FE8804C EQ PUSH2 0x162 JUMPI DUP1 PUSH4 0x3FEB5F2B EQ PUSH2 0x19B JUMPI DUP1 PUSH4 0x45BCAD9A EQ PUSH2 0x1C5 JUMPI DUP1 PUSH4 0x6D4CE63C EQ PUSH2 0x1DA JUMPI PUSH2 0xDD JUMP JUMPDEST DUP1 PUSH4 0x340D02FE EQ PUSH2 0xE2 JUMPI DUP1 PUSH4 0x3CCFD60B EQ PUSH2 0x113 JUMPI DUP1 PUSH4 0x3E47D6F3 EQ PUSH2 0x11D JUMPI JUMPDEST PUSH1 0x0 DUP1 REVERT JUMPDEST CALLVALUE DUP1 ISZERO PUSH2 0xEE JUMPI PUSH1 0x0 DUP1 REVERT JUMPDEST POP PUSH2 0xF7 PUSH2 0x2A8 JUMP JUMPDEST PUSH1 0x40 DUP1 MLOAD PUSH1 0x1 PUSH1 0x1 PUSH1 0xA0 SHL SUB SWAP1 SWAP3 AND DUP3 MSTORE MLOAD SWAP1 DUP2 SWAP1 SUB PUSH1 0x20 ADD SWAP1 RETURN JUMPDEST PUSH2 0x11B PUSH2 0x2B7 JUMP JUMPDEST STOP JUMPDEST CALLVALUE DUP1 ISZERO PUSH2 0x129 JUMPI PUSH1 0x0 DUP1 REVERT JUMPDEST POP PUSH2 0x150 PUSH1 0x4 DUP1 CALLDATASIZE SUB PUSH1 0x20 DUP2 LT ISZERO PUSH2 0x140 JUMPI PUSH1 0x0 DUP1 REVERT JUMPDEST POP CALLDATALOAD PUSH1 0x1 PUSH1 0x1 PUSH1 0xA0 SHL SUB AND PUSH2 0x344 JUMP JUMPDEST PUSH1 0x40 DUP1 MLOAD SWAP2 DUP3 MSTORE MLOAD SWAP1 DUP2 SWAP1 SUB PUSH1 0x20 ADD SWAP1 RETURN JUMPDEST CALLVALUE DUP1 ISZERO PUSH2 0x16E JUMPI PUSH1 0x0 DUP1 REVERT JUMPDEST POP PUSH2 0x177 PUSH2 0x356 JUMP JUMPDEST PUSH1 0x40 MLOAD DUP1 DUP3 PUSH1 0x6 DUP2 GT ISZERO PUSH2 0x187 JUMPI INVALID JUMPDEST PUSH1 0xFF AND DUP2 MSTORE PUSH1 0x20 ADD SWAP2 POP POP PUSH1 0x40 MLOAD DUP1 SWAP2 SUB SWAP1 RETURN JUMPDEST CALLVALUE DUP1 ISZERO PUSH2 0x1A7 JUMPI PUSH1 0x0 DUP1 REVERT JUMPDEST POP PUSH2 0xF7 PUSH1 0x4 DUP1 CALLDATASIZE SUB PUSH1 0x20 DUP2 LT ISZERO PUSH2 0x1BE JUMPI PUSH1 0x0 DUP1 REVERT JUMPDEST POP CALLDATALOAD PUSH2 0x366 JUMP JUMPDEST CALLVALUE DUP1 ISZERO PUSH2 0x1D1 JUMPI PUSH1 0x0 DUP1 REVERT JUMPDEST POP PUSH2 0x11B PUSH2 0x38D JUMP JUMPDEST CALLVALUE DUP1 ISZERO PUSH2 0x1E6 JUMPI PUSH1 0x0 DUP1 REVERT JUMPDEST POP PUSH2 0x177 PUSH2 0x428 JUMP JUMPDEST CALLVALUE DUP1 ISZERO PUSH2 0x1FB JUMPI PUSH1 0x0 DUP1 REVERT JUMPDEST POP PUSH2 0xF7 PUSH2 0x438 JUMP JUMPDEST PUSH2 0x11B PUSH1 0x4 DUP1 CALLDATASIZE SUB PUSH1 0x20 DUP2 LT ISZERO PUSH2 0x21A JUMPI PUSH1 0x0 DUP1 REVERT JUMPDEST POP CALLDATALOAD PUSH2 0x447 JUMP JUMPDEST CALLVALUE DUP1 ISZERO PUSH2 0x22D JUMPI PUSH1 0x0 DUP1 REVERT JUMPDEST POP PUSH2 0x11B PUSH2 0x49D JUMP JUMPDEST CALLVALUE DUP1 ISZERO PUSH2 0x242 JUMPI PUSH1 0x0 DUP1 REVERT JUMPDEST POP PUSH2 0x11B PUSH2 0x523 JUMP JUMPDEST CALLVALUE DUP1 ISZERO PUSH2 0x257 JUMPI PUSH1 0x0 DUP1 REVERT JUMPDEST POP PUSH2 0x11B PUSH1 0x4 DUP1 CALLDATASIZE SUB PUSH1 0x20 DUP2 LT ISZERO PUSH2 0x26E JUMPI PUSH1 0x0 DUP1 REVERT JUMPDEST POP CALLDATALOAD PUSH1 0x1 PUSH1 0x1 PUSH1 0xA0 SHL SUB AND PUSH2 0x5A7 JUMP JUMPDEST CALLVALUE DUP1 ISZERO PUSH2 0x28A JUMPI PUSH1 0x0 DUP1 REVERT JUMPDEST POP PUSH2 0x11B PUSH2 0x5E0 JUMP JUMPDEST CALLVALUE DUP1 ISZERO PUSH2 0x29F JUMPI PUSH1 0x0 DUP1 REVERT JUMPDEST POP PUSH2 0xF7 PUSH2 0x678 JUMP JUMPDEST PUSH1 0x4 SLOAD PUSH1 0x1 PUSH1 0x1 PUSH1 0xA0 SHL SUB AND DUP2 JUMP JUMPDEST PUSH1 0x2 SLOAD PUSH1 0x1 PUSH1 0x1 PUSH1 0xA0 SHL SUB AND CALLER EQ PUSH2 0x2CE JUMPI PUSH1 0x0 DUP1 REVERT JUMPDEST PUSH1 0x40 MLOAD CALLER SWAP1 SELFBALANCE DUP1 ISZERO PUSH2 0x8FC MUL SWAP2 PUSH1 0x0 DUP2 DUP2 DUP2 DUP6 DUP9 DUP9 CALL SWAP4 POP POP POP POP ISZERO DUP1 ISZERO PUSH2 0x2FA JUMPI RETURNDATASIZE PUSH1 0x0 DUP1 RETURNDATACOPY RETURNDATASIZE PUSH1 0x0 REVERT JUMPDEST POP PUSH1 0x0 JUMPDEST PUSH1 0x1 SLOAD DUP2 LT ISZERO PUSH2 0x341 JUMPI PUSH1 0x0 PUSH1 0x1 DUP3 DUP2 SLOAD DUP2 LT PUSH2 0x317 JUMPI INVALID JUMPDEST PUSH1 0x0 SWAP2 DUP3 MSTORE PUSH1 0x20 DUP1 DUP4 KECCAK256 SWAP1 SWAP2 ADD SLOAD PUSH1 0x1 PUSH1 0x1 PUSH1 0xA0 SHL SUB AND DUP3 MSTORE DUP2 SWAP1 MSTORE PUSH1 0x40 DUP2 KECCAK256 SSTORE POP PUSH1 0x1 ADD PUSH2 0x2FE JUMP JUMPDEST POP JUMP JUMPDEST PUSH1 0x0 PUSH1 0x20 DUP2 SWAP1 MSTORE SWAP1 DUP2 MSTORE PUSH1 0x40 SWAP1 KECCAK256 SLOAD DUP2 JUMP JUMPDEST PUSH1 0x4 SLOAD PUSH1 0x1 PUSH1 0xA0 SHL SWAP1 DIV PUSH1 0xFF AND DUP2 JUMP JUMPDEST PUSH1 0x1 DUP2 DUP2 SLOAD DUP2 LT PUSH2 0x373 JUMPI INVALID JUMPDEST PUSH1 0x0 SWAP2 DUP3 MSTORE PUSH1 0x20 SWAP1 SWAP2 KECCAK256 ADD SLOAD PUSH1 0x1 PUSH1 0x1 PUSH1 0xA0 SHL SUB AND SWAP1 POP DUP2 JUMP JUMPDEST PUSH1 0x2 SLOAD PUSH1 0x1 PUSH1 0x1 PUSH1 0xA0 SHL SUB AND CALLER EQ PUSH2 0x3A4 JUMPI PUSH1 0x0 DUP1 REVERT JUMPDEST PUSH1 0x3 PUSH1 0x4 SLOAD PUSH1 0x1 PUSH1 0xA0 SHL SWAP1 DIV PUSH1 0xFF AND PUSH1 0x6 DUP2 GT ISZERO PUSH2 0x3BE JUMPI INVALID JUMPDEST EQ PUSH2 0x40B JUMPI PUSH1 0x40 DUP1 MLOAD PUSH3 0x461BCD PUSH1 0xE5 SHL DUP2 MSTORE PUSH1 0x20 PUSH1 0x4 DUP3 ADD MSTORE PUSH1 0x18 PUSH1 0x24 DUP3 ADD MSTORE PUSH24 0x10D85B89DD081A5CDCDD59481B995DC81CDD5ADCC81E595D PUSH1 0x42 SHL PUSH1 0x44 DUP3 ADD MSTORE SWAP1 MLOAD SWAP1 DUP2 SWAP1 SUB PUSH1 0x64 ADD SWAP1 REVERT JUMPDEST PUSH1 0x4 DUP1 SLOAD PUSH1 0x1 SWAP2 SWAP1 PUSH1 0xFF PUSH1 0xA0 SHL NOT AND PUSH1 0x1 PUSH1 0xA0 SHL DUP4 JUMPDEST MUL OR SWAP1 SSTORE POP JUMP JUMPDEST PUSH1 0x4 SLOAD PUSH1 0x1 PUSH1 0xA0 SHL SWAP1 DIV PUSH1 0xFF AND SWAP1 JUMP JUMPDEST PUSH1 0x3 SLOAD PUSH1 0x1 PUSH1 0x1 PUSH1 0xA0 SHL SUB AND DUP2 JUMP JUMPDEST POP CALLER PUSH1 0x0 DUP2 DUP2 MSTORE PUSH1 0x20 DUP2 SWAP1 MSTORE PUSH1 0x40 DUP2 KECCAK256 DUP1 SLOAD CALLVALUE ADD SWAP1 SSTORE PUSH1 0x1 DUP1 SLOAD DUP1 DUP3 ADD DUP3 SSTORE SWAP2 MSTORE PUSH32 0xB10E2D527612073B26EECDFD717E6A320CF44B4AFAC2B0732D9FCBE2B7FA0CF6 ADD DUP1 SLOAD PUSH1 0x1 PUSH1 0x1 PUSH1 0xA0 SHL SUB NOT AND SWAP1 SWAP2 OR SWAP1 SSTORE JUMP JUMPDEST PUSH1 0x2 SLOAD PUSH1 0x1 PUSH1 0x1 PUSH1 0xA0 SHL SUB AND CALLER EQ PUSH2 0x4B4 JUMPI PUSH1 0x0 DUP1 REVERT JUMPDEST PUSH1 0x2 PUSH1 0x4 SLOAD PUSH1 0x1 PUSH1 0xA0 SHL SWAP1 DIV PUSH1 0xFF AND PUSH1 0x6 DUP2 GT ISZERO PUSH2 0x4CE JUMPI INVALID JUMPDEST EQ PUSH2 0x509 JUMPI PUSH1 0x40 DUP1 MLOAD PUSH3 0x461BCD PUSH1 0xE5 SHL DUP2 MSTORE PUSH1 0x20 PUSH1 0x4 DUP1 DUP4 ADD SWAP2 SWAP1 SWAP2 MSTORE PUSH1 0x24 DUP3 ADD MSTORE PUSH4 0x15195CDD PUSH1 0xE2 SHL PUSH1 0x44 DUP3 ADD MSTORE SWAP1 MLOAD SWAP1 DUP2 SWAP1 SUB PUSH1 0x64 ADD SWAP1 REVERT JUMPDEST PUSH1 0x4 DUP1 SLOAD PUSH1 0x0 SWAP2 SWAP1 PUSH1 0xFF PUSH1 0xA0 SHL NOT AND PUSH1 0x1 PUSH1 0xA0 SHL DUP4 PUSH2 0x421 JUMP JUMPDEST PUSH1 0x2 SLOAD PUSH1 0x1 PUSH1 0x1 PUSH1 0xA0 SHL SUB AND CALLER EQ PUSH2 0x53A JUMPI PUSH1 0x0 DUP1 REVERT JUMPDEST PUSH1 0x0 PUSH1 0x4 SLOAD PUSH1 0x1 PUSH1 0xA0 SHL SWAP1 DIV PUSH1 0xFF AND PUSH1 0x6 DUP2 GT ISZERO PUSH2 0x554 JUMPI INVALID JUMPDEST EQ PUSH2 0x58F JUMPI PUSH1 0x40 DUP1 MLOAD PUSH3 0x461BCD PUSH1 0xE5 SHL DUP2 MSTORE PUSH1 0x20 PUSH1 0x4 DUP1 DUP4 ADD SWAP2 SWAP1 SWAP2 MSTORE PUSH1 0x24 DUP3 ADD MSTORE PUSH4 0x15195CDD PUSH1 0xE2 SHL PUSH1 0x44 DUP3 ADD MSTORE SWAP1 MLOAD SWAP1 DUP2 SWAP1 SUB PUSH1 0x64 ADD SWAP1 REVERT JUMPDEST PUSH1 0x4 DUP1 SLOAD DUP2 SWAP1 PUSH1 0xFF PUSH1 0xA0 SHL NOT AND PUSH1 0x1 PUSH1 0xA0 SHL DUP3 PUSH2 0x421 JUMP JUMPDEST PUSH1 0x2 SLOAD PUSH1 0x1 PUSH1 0x1 PUSH1 0xA0 SHL SUB AND CALLER EQ PUSH2 0x5BE JUMPI PUSH1 0x0 DUP1 REVERT JUMPDEST PUSH1 0x4 DUP1 SLOAD PUSH1 0x1 PUSH1 0x1 PUSH1 0xA0 SHL SUB NOT AND PUSH1 0x1 PUSH1 0x1 PUSH1 0xA0 SHL SUB SWAP3 SWAP1 SWAP3 AND SWAP2 SWAP1 SWAP2 OR SWAP1 SSTORE JUMP JUMPDEST PUSH1 0x2 SLOAD PUSH1 0x1 PUSH1 0x1 PUSH1 0xA0 SHL SUB AND CALLER EQ PUSH2 0x5F7 JUMPI PUSH1 0x0 DUP1 REVERT JUMPDEST PUSH1 0x1 PUSH1 0x4 SLOAD PUSH1 0x1 PUSH1 0xA0 SHL SWAP1 DIV PUSH1 0xFF AND PUSH1 0x6 DUP2 GT ISZERO PUSH2 0x611 JUMPI INVALID JUMPDEST EQ PUSH2 0x65E JUMPI PUSH1 0x40 DUP1 MLOAD PUSH3 0x461BCD PUSH1 0xE5 SHL DUP2 MSTORE PUSH1 0x20 PUSH1 0x4 DUP3 ADD MSTORE PUSH1 0x18 PUSH1 0x24 DUP3 ADD MSTORE PUSH24 0x10D85B89DD081A5CDCDD59481B995DC81CDD5ADCC81E595D PUSH1 0x42 SHL PUSH1 0x44 DUP3 ADD MSTORE SWAP1 MLOAD SWAP1 DUP2 SWAP1 SUB PUSH1 0x64 ADD SWAP1 REVERT JUMPDEST PUSH1 0x4 DUP1 SLOAD PUSH1 0x2 SWAP2 SWAP1 PUSH1 0xFF PUSH1 0xA0 SHL NOT AND PUSH1 0x1 PUSH1 0xA0 SHL DUP4 PUSH2 0x421 JUMP JUMPDEST PUSH1 0x2 SLOAD PUSH1 0x1 PUSH1 0x1 PUSH1 0xA0 SHL SUB AND DUP2 JUMP INVALID LOG2 PUSH5 0x6970667358 0x22 SLT KECCAK256 0xE5 PUSH32 0x9FB3E792C9C2308C4006EB904BDC73F74E68F7D75D8A01B74E624CD947596473 PUSH16 0x6C634300060000330000000000000000 ",
  "sha1": "47531c4d1a22676f025ae7c4d68d76ab62804675",
  "source": "// SPDX-License-Identifier: MIT\n\npragma solidity 0.6.0;\n\nimport \"@chainlink/contracts/src/v0.6/interfaces/AggregatorV3Interface.sol\";\n\n\n// This one for now to track what each investor/ I will look at the implementation later\n\n\ncontract Sukuk{\n    mapping(address => uint256) public addressToAmountFunded;\n    address payable[] public investors;\n    address public  admin;\n    AggregatorV3Interface public priceFeed;\n    address payable public Ijaara ;\n\n    //Sukuk State\n    enum SUKUK_STATE{\n        COOLDOWN,// This state will be when the contract is in effect however it doesn't have any tasks to excute\n        OPEN,\n        ISSUE,\n        CLOSEED,\n        \n        REDEEM_PERIOD,\n        TERM_1,\n        TERM_2\n    }\n    SUKUK_STATE public sukuk_state;\n\n\n    function get() public view returns(SUKUK_STATE){\n        return sukuk_state;\n    }\n\n\n\n\n\n    //added an argument to constructor for testing\n    constructor(\n        address _priceFeed\n      ) \n    public {\n        priceFeed = AggregatorV3Interface(_priceFeed);\n        // Admin will be the contract sender for now\n        admin = msg.sender;\n        sukuk_state = SUKUK_STATE.CLOSEED;\n\n    }\n\n\n\n\n    function     startSukuk( ) public onlyAdmin{\n            require(\n            sukuk_state == SUKUK_STATE.CLOSEED,\n            \"Can't issue new suks yet\"\n        );\n\n\n\n\n\n        sukuk_state = SUKUK_STATE.OPEN;\n\n    }\n    \n\n\n\n\n    function  IssueSukuk( ) public onlyAdmin{\n        require(\n            sukuk_state == SUKUK_STATE.OPEN,\n            \"Can't issue new suks yet\"\n        );\n\n        sukuk_state = SUKUK_STATE.ISSUE;\n\n    }\n\n    function EndIssue() public onlyAdmin{\n        require(\n            sukuk_state == SUKUK_STATE.ISSUE,\n            \"Test\"\n        );\n\n        sukuk_state = SUKUK_STATE.COOLDOWN;\n    }\n\n    function startRedeem() public onlyAdmin{\n        require(\n            sukuk_state == SUKUK_STATE.COOLDOWN,\n            \"Test\"\n        );\n\n        sukuk_state = SUKUK_STATE.REDEEM_PERIOD;\n    }\n\n\n\n\n\n    \n\n    function purchase_suk(uint256 _number_of_sukuk) public payable{\n\n\n\n        // Right now it only tracks the amount and address only.\n        addressToAmountFunded[msg.sender] += msg.value;\n        investors.push(payable(msg.sender));\n    }\n\n\n\n\n    function setIjaara(address payable _Ijaara ) public onlyAdmin{\n        Ijaara = _Ijaara;\n        \n    }\n\n\n\n\n\n\n\n\n    modifier onlyAdmin(){\n        require(msg.sender == admin);\n        _;\n    }\n\n    modifier onlyIjaara(){\n        require(msg.sender == Ijaara);\n        _;\n    }\n\n    function withdraw() public payable onlyAdmin{\n        msg.sender.transfer(address(this).balance);\n\n        for (\n            uint256 funderIndex = 0;\n            funderIndex < investors.length;\n            funderIndex++\n        ) {\n            address funder = investors[funderIndex];\n            addressToAmountFunded[funder] = 0;\n        }\n\n    }\n\n    //function redeem() public payable{}\n\n\n}",
  "sourcePath": "contracts/Purchese.sol",
  "type": "contract"
}