{
  "abi": [
    {
      "inputs": [
        {
          "internalType": "address",
          "name": "_priceFeed",
          "type": "address"
        }
      ],
      "stateMutability": "nonpayable",
      "type": "constructor"
    },
    {
      "inputs": [],
      "name": "EndIssue",
      "outputs": [],
      "stateMutability": "nonpayable",
      "type": "function"
    },
    {
      "inputs": [],
      "name": "IssueSukuk",
      "outputs": [],
      "stateMutability": "nonpayable",
      "type": "function"
    },
    {
      "inputs": [
        {
          "internalType": "address",
          "name": "",
          "type": "address"
        }
      ],
      "name": "addressToAmountFunded",
      "outputs": [
        {
          "internalType": "uint256",
          "name": "",
          "type": "uint256"
        }
      ],
      "stateMutability": "view",
      "type": "function"
    },
    {
      "inputs": [],
      "name": "admin",
      "outputs": [
        {
          "internalType": "address",
          "name": "",
          "type": "address"
        }
      ],
      "stateMutability": "view",
      "type": "function"
    },
    {
      "inputs": [
        {
          "internalType": "uint256",
          "name": "",
          "type": "uint256"
        }
      ],
      "name": "investors",
      "outputs": [
        {
          "internalType": "address payable",
          "name": "",
          "type": "address"
        }
      ],
      "stateMutability": "view",
      "type": "function"
    },
    {
      "inputs": [],
      "name": "priceFeed",
      "outputs": [
        {
          "internalType": "contract AggregatorV3Interface",
          "name": "",
          "type": "address"
        }
      ],
      "stateMutability": "view",
      "type": "function"
    },
    {
      "inputs": [
        {
          "internalType": "uint256",
          "name": "_number_of_sukuk",
          "type": "uint256"
        }
      ],
      "name": "purchase_suk",
      "outputs": [],
      "stateMutability": "payable",
      "type": "function"
    },
    {
      "inputs": [],
      "name": "startRedeem",
      "outputs": [],
      "stateMutability": "nonpayable",
      "type": "function"
    },
    {
      "inputs": [],
      "name": "startSukuk",
      "outputs": [],
      "stateMutability": "nonpayable",
      "type": "function"
    },
    {
      "inputs": [],
      "name": "sukuk_state",
      "outputs": [
        {
          "internalType": "enum Sukuk.SUKUK_STATE",
          "name": "",
          "type": "uint8"
        }
      ],
      "stateMutability": "view",
      "type": "function"
    },
    {
      "inputs": [],
      "name": "withdraw",
      "outputs": [],
      "stateMutability": "payable",
      "type": "function"
    }
  ],
  "bytecode": "608060405234801561001057600080fd5b506040516105d13803806105d18339818101604052602081101561003357600080fd5b5051600380546001600160a01b039092166001600160a01b031992831617905560028054909116331790556105648061006d6000396000f3fe60806040526004361061009c5760003560e01c8063741bef1a11610064578063741bef1a146101845780637ce2a070146101995780638a2fee73146101b65780639e3578d7146101cb578063ce00d813146101e0578063f851a440146101f55761009c565b80633ccfd60b146100a15780633e47d6f3146100ab5780633fe8804c146100f05780633feb5f2b1461012957806345bcad9a1461016f575b600080fd5b6100a961020a565b005b3480156100b757600080fd5b506100de600480360360208110156100ce57600080fd5b50356001600160a01b0316610297565b60408051918252519081900360200190f35b3480156100fc57600080fd5b506101056102a9565b6040518082600681111561011557fe5b60ff16815260200191505060405180910390f35b34801561013557600080fd5b506101536004803603602081101561014c57600080fd5b50356102b9565b604080516001600160a01b039092168252519081900360200190f35b34801561017b57600080fd5b506100a96102e0565b34801561019057600080fd5b50610153610314565b6100a9600480360360208110156101af57600080fd5b5035610323565b3480156101c257600080fd5b506100a9610379565b3480156101d757600080fd5b506100a96103fd565b3480156101ec57600080fd5b506100a9610482565b34801561020157600080fd5b5061015361051f565b6002546001600160a01b0316331461022157600080fd5b60405133904780156108fc02916000818181858888f1935050505015801561024d573d6000803e3d6000fd5b5060005b6001548110156102945760006001828154811061026a57fe5b60009182526020808320909101546001600160a01b03168252819052604081205550600101610251565b50565b60006020819052908152604090205481565b600354600160a01b900460ff1681565b600181815481106102c657fe5b6000918252602090912001546001600160a01b0316905081565b6002546001600160a01b031633146102f757600080fd5b600380546000919060ff60a01b1916600160a01b835b0217905550565b6003546001600160a01b031681565b5033600081815260208190526040812080543401905560018054808201825591527fb10e2d527612073b26eecdfd717e6a320cf44b4afac2b0732d9fcbe2b7fa0cf60180546001600160a01b0319169091179055565b6002546001600160a01b0316331461039057600080fd5b6001600354600160a01b900460ff1660068111156103aa57fe5b146103e5576040805162461bcd60e51b8152602060048083019190915260248201526315195cdd60e21b604482015290519081900360640190fd5b60038054819060ff60a01b1916600160a01b8261030d565b6002546001600160a01b0316331461041457600080fd5b60038054600160a01b900460ff16600681111561042d57fe5b14610468576040805162461bcd60e51b8152602060048083019190915260248201526315195cdd60e21b604482015290519081900360640190fd5b600380546004919060ff60a01b1916600160a01b8361030d565b6002546001600160a01b0316331461049957600080fd5b6000600354600160a01b900460ff1660068111156104b357fe5b14610505576040805162461bcd60e51b815260206004820152601860248201527f43616e2774206973737565206e65772073756b73207965740000000000000000604482015290519081900360640190fd5b600380546001919060ff60a01b1916600160a01b8361030d565b6002546001600160a01b03168156fea2646970667358221220c3495aa51d76e8b36b65aadabbcfce39d9fa73396e2d790e4ebad157e143b35264736f6c63430006000033",
  "bytecodeSha1": "e2e77a53fbc55718bbc36a15e902a9aac0700d25",
  "compiler": {
    "evm_version": "istanbul",
    "optimizer": {
      "enabled": true,
      "runs": 200
    },
    "version": "0.6.0+commit.26b70077"
  },
  "contractName": "Sukuk",
  "language": "Solidity",
  "natspec": {
    "methods": {}
  },
  "opcodes": "PUSH1 0x80 PUSH1 0x40 MSTORE PUSH1 0x4 CALLDATASIZE LT PUSH2 0x9C JUMPI PUSH1 0x0 CALLDATALOAD PUSH1 0xE0 SHR DUP1 PUSH4 0x741BEF1A GT PUSH2 0x64 JUMPI DUP1 PUSH4 0x741BEF1A EQ PUSH2 0x184 JUMPI DUP1 PUSH4 0x7CE2A070 EQ PUSH2 0x199 JUMPI DUP1 PUSH4 0x8A2FEE73 EQ PUSH2 0x1B6 JUMPI DUP1 PUSH4 0x9E3578D7 EQ PUSH2 0x1CB JUMPI DUP1 PUSH4 0xCE00D813 EQ PUSH2 0x1E0 JUMPI DUP1 PUSH4 0xF851A440 EQ PUSH2 0x1F5 JUMPI PUSH2 0x9C JUMP JUMPDEST DUP1 PUSH4 0x3CCFD60B EQ PUSH2 0xA1 JUMPI DUP1 PUSH4 0x3E47D6F3 EQ PUSH2 0xAB JUMPI DUP1 PUSH4 0x3FE8804C EQ PUSH2 0xF0 JUMPI DUP1 PUSH4 0x3FEB5F2B EQ PUSH2 0x129 JUMPI DUP1 PUSH4 0x45BCAD9A EQ PUSH2 0x16F JUMPI JUMPDEST PUSH1 0x0 DUP1 REVERT JUMPDEST PUSH2 0xA9 PUSH2 0x20A JUMP JUMPDEST STOP JUMPDEST CALLVALUE DUP1 ISZERO PUSH2 0xB7 JUMPI PUSH1 0x0 DUP1 REVERT JUMPDEST POP PUSH2 0xDE PUSH1 0x4 DUP1 CALLDATASIZE SUB PUSH1 0x20 DUP2 LT ISZERO PUSH2 0xCE JUMPI PUSH1 0x0 DUP1 REVERT JUMPDEST POP CALLDATALOAD PUSH1 0x1 PUSH1 0x1 PUSH1 0xA0 SHL SUB AND PUSH2 0x297 JUMP JUMPDEST PUSH1 0x40 DUP1 MLOAD SWAP2 DUP3 MSTORE MLOAD SWAP1 DUP2 SWAP1 SUB PUSH1 0x20 ADD SWAP1 RETURN JUMPDEST CALLVALUE DUP1 ISZERO PUSH2 0xFC JUMPI PUSH1 0x0 DUP1 REVERT JUMPDEST POP PUSH2 0x105 PUSH2 0x2A9 JUMP JUMPDEST PUSH1 0x40 MLOAD DUP1 DUP3 PUSH1 0x6 DUP2 GT ISZERO PUSH2 0x115 JUMPI INVALID JUMPDEST PUSH1 0xFF AND DUP2 MSTORE PUSH1 0x20 ADD SWAP2 POP POP PUSH1 0x40 MLOAD DUP1 SWAP2 SUB SWAP1 RETURN JUMPDEST CALLVALUE DUP1 ISZERO PUSH2 0x135 JUMPI PUSH1 0x0 DUP1 REVERT JUMPDEST POP PUSH2 0x153 PUSH1 0x4 DUP1 CALLDATASIZE SUB PUSH1 0x20 DUP2 LT ISZERO PUSH2 0x14C JUMPI PUSH1 0x0 DUP1 REVERT JUMPDEST POP CALLDATALOAD PUSH2 0x2B9 JUMP JUMPDEST PUSH1 0x40 DUP1 MLOAD PUSH1 0x1 PUSH1 0x1 PUSH1 0xA0 SHL SUB SWAP1 SWAP3 AND DUP3 MSTORE MLOAD SWAP1 DUP2 SWAP1 SUB PUSH1 0x20 ADD SWAP1 RETURN JUMPDEST CALLVALUE DUP1 ISZERO PUSH2 0x17B JUMPI PUSH1 0x0 DUP1 REVERT JUMPDEST POP PUSH2 0xA9 PUSH2 0x2E0 JUMP JUMPDEST CALLVALUE DUP1 ISZERO PUSH2 0x190 JUMPI PUSH1 0x0 DUP1 REVERT JUMPDEST POP PUSH2 0x153 PUSH2 0x314 JUMP JUMPDEST PUSH2 0xA9 PUSH1 0x4 DUP1 CALLDATASIZE SUB PUSH1 0x20 DUP2 LT ISZERO PUSH2 0x1AF JUMPI PUSH1 0x0 DUP1 REVERT JUMPDEST POP CALLDATALOAD PUSH2 0x323 JUMP JUMPDEST CALLVALUE DUP1 ISZERO PUSH2 0x1C2 JUMPI PUSH1 0x0 DUP1 REVERT JUMPDEST POP PUSH2 0xA9 PUSH2 0x379 JUMP JUMPDEST CALLVALUE DUP1 ISZERO PUSH2 0x1D7 JUMPI PUSH1 0x0 DUP1 REVERT JUMPDEST POP PUSH2 0xA9 PUSH2 0x3FD JUMP JUMPDEST CALLVALUE DUP1 ISZERO PUSH2 0x1EC JUMPI PUSH1 0x0 DUP1 REVERT JUMPDEST POP PUSH2 0xA9 PUSH2 0x482 JUMP JUMPDEST CALLVALUE DUP1 ISZERO PUSH2 0x201 JUMPI PUSH1 0x0 DUP1 REVERT JUMPDEST POP PUSH2 0x153 PUSH2 0x51F JUMP JUMPDEST PUSH1 0x2 SLOAD PUSH1 0x1 PUSH1 0x1 PUSH1 0xA0 SHL SUB AND CALLER EQ PUSH2 0x221 JUMPI PUSH1 0x0 DUP1 REVERT JUMPDEST PUSH1 0x40 MLOAD CALLER SWAP1 SELFBALANCE DUP1 ISZERO PUSH2 0x8FC MUL SWAP2 PUSH1 0x0 DUP2 DUP2 DUP2 DUP6 DUP9 DUP9 CALL SWAP4 POP POP POP POP ISZERO DUP1 ISZERO PUSH2 0x24D JUMPI RETURNDATASIZE PUSH1 0x0 DUP1 RETURNDATACOPY RETURNDATASIZE PUSH1 0x0 REVERT JUMPDEST POP PUSH1 0x0 JUMPDEST PUSH1 0x1 SLOAD DUP2 LT ISZERO PUSH2 0x294 JUMPI PUSH1 0x0 PUSH1 0x1 DUP3 DUP2 SLOAD DUP2 LT PUSH2 0x26A JUMPI INVALID JUMPDEST PUSH1 0x0 SWAP2 DUP3 MSTORE PUSH1 0x20 DUP1 DUP4 KECCAK256 SWAP1 SWAP2 ADD SLOAD PUSH1 0x1 PUSH1 0x1 PUSH1 0xA0 SHL SUB AND DUP3 MSTORE DUP2 SWAP1 MSTORE PUSH1 0x40 DUP2 KECCAK256 SSTORE POP PUSH1 0x1 ADD PUSH2 0x251 JUMP JUMPDEST POP JUMP JUMPDEST PUSH1 0x0 PUSH1 0x20 DUP2 SWAP1 MSTORE SWAP1 DUP2 MSTORE PUSH1 0x40 SWAP1 KECCAK256 SLOAD DUP2 JUMP JUMPDEST PUSH1 0x3 SLOAD PUSH1 0x1 PUSH1 0xA0 SHL SWAP1 DIV PUSH1 0xFF AND DUP2 JUMP JUMPDEST PUSH1 0x1 DUP2 DUP2 SLOAD DUP2 LT PUSH2 0x2C6 JUMPI INVALID JUMPDEST PUSH1 0x0 SWAP2 DUP3 MSTORE PUSH1 0x20 SWAP1 SWAP2 KECCAK256 ADD SLOAD PUSH1 0x1 PUSH1 0x1 PUSH1 0xA0 SHL SUB AND SWAP1 POP DUP2 JUMP JUMPDEST PUSH1 0x2 SLOAD PUSH1 0x1 PUSH1 0x1 PUSH1 0xA0 SHL SUB AND CALLER EQ PUSH2 0x2F7 JUMPI PUSH1 0x0 DUP1 REVERT JUMPDEST PUSH1 0x3 DUP1 SLOAD PUSH1 0x0 SWAP2 SWAP1 PUSH1 0xFF PUSH1 0xA0 SHL NOT AND PUSH1 0x1 PUSH1 0xA0 SHL DUP4 JUMPDEST MUL OR SWAP1 SSTORE POP JUMP JUMPDEST PUSH1 0x3 SLOAD PUSH1 0x1 PUSH1 0x1 PUSH1 0xA0 SHL SUB AND DUP2 JUMP JUMPDEST POP CALLER PUSH1 0x0 DUP2 DUP2 MSTORE PUSH1 0x20 DUP2 SWAP1 MSTORE PUSH1 0x40 DUP2 KECCAK256 DUP1 SLOAD CALLVALUE ADD SWAP1 SSTORE PUSH1 0x1 DUP1 SLOAD DUP1 DUP3 ADD DUP3 SSTORE SWAP2 MSTORE PUSH32 0xB10E2D527612073B26EECDFD717E6A320CF44B4AFAC2B0732D9FCBE2B7FA0CF6 ADD DUP1 SLOAD PUSH1 0x1 PUSH1 0x1 PUSH1 0xA0 SHL SUB NOT AND SWAP1 SWAP2 OR SWAP1 SSTORE JUMP JUMPDEST PUSH1 0x2 SLOAD PUSH1 0x1 PUSH1 0x1 PUSH1 0xA0 SHL SUB AND CALLER EQ PUSH2 0x390 JUMPI PUSH1 0x0 DUP1 REVERT JUMPDEST PUSH1 0x1 PUSH1 0x3 SLOAD PUSH1 0x1 PUSH1 0xA0 SHL SWAP1 DIV PUSH1 0xFF AND PUSH1 0x6 DUP2 GT ISZERO PUSH2 0x3AA JUMPI INVALID JUMPDEST EQ PUSH2 0x3E5 JUMPI PUSH1 0x40 DUP1 MLOAD PUSH3 0x461BCD PUSH1 0xE5 SHL DUP2 MSTORE PUSH1 0x20 PUSH1 0x4 DUP1 DUP4 ADD SWAP2 SWAP1 SWAP2 MSTORE PUSH1 0x24 DUP3 ADD MSTORE PUSH4 0x15195CDD PUSH1 0xE2 SHL PUSH1 0x44 DUP3 ADD MSTORE SWAP1 MLOAD SWAP1 DUP2 SWAP1 SUB PUSH1 0x64 ADD SWAP1 REVERT JUMPDEST PUSH1 0x3 DUP1 SLOAD DUP2 SWAP1 PUSH1 0xFF PUSH1 0xA0 SHL NOT AND PUSH1 0x1 PUSH1 0xA0 SHL DUP3 PUSH2 0x30D JUMP JUMPDEST PUSH1 0x2 SLOAD PUSH1 0x1 PUSH1 0x1 PUSH1 0xA0 SHL SUB AND CALLER EQ PUSH2 0x414 JUMPI PUSH1 0x0 DUP1 REVERT JUMPDEST PUSH1 0x3 DUP1 SLOAD PUSH1 0x1 PUSH1 0xA0 SHL SWAP1 DIV PUSH1 0xFF AND PUSH1 0x6 DUP2 GT ISZERO PUSH2 0x42D JUMPI INVALID JUMPDEST EQ PUSH2 0x468 JUMPI PUSH1 0x40 DUP1 MLOAD PUSH3 0x461BCD PUSH1 0xE5 SHL DUP2 MSTORE PUSH1 0x20 PUSH1 0x4 DUP1 DUP4 ADD SWAP2 SWAP1 SWAP2 MSTORE PUSH1 0x24 DUP3 ADD MSTORE PUSH4 0x15195CDD PUSH1 0xE2 SHL PUSH1 0x44 DUP3 ADD MSTORE SWAP1 MLOAD SWAP1 DUP2 SWAP1 SUB PUSH1 0x64 ADD SWAP1 REVERT JUMPDEST PUSH1 0x3 DUP1 SLOAD PUSH1 0x4 SWAP2 SWAP1 PUSH1 0xFF PUSH1 0xA0 SHL NOT AND PUSH1 0x1 PUSH1 0xA0 SHL DUP4 PUSH2 0x30D JUMP JUMPDEST PUSH1 0x2 SLOAD PUSH1 0x1 PUSH1 0x1 PUSH1 0xA0 SHL SUB AND CALLER EQ PUSH2 0x499 JUMPI PUSH1 0x0 DUP1 REVERT JUMPDEST PUSH1 0x0 PUSH1 0x3 SLOAD PUSH1 0x1 PUSH1 0xA0 SHL SWAP1 DIV PUSH1 0xFF AND PUSH1 0x6 DUP2 GT ISZERO PUSH2 0x4B3 JUMPI INVALID JUMPDEST EQ PUSH2 0x505 JUMPI PUSH1 0x40 DUP1 MLOAD PUSH3 0x461BCD PUSH1 0xE5 SHL DUP2 MSTORE PUSH1 0x20 PUSH1 0x4 DUP3 ADD MSTORE PUSH1 0x18 PUSH1 0x24 DUP3 ADD MSTORE PUSH32 0x43616E2774206973737565206E65772073756B73207965740000000000000000 PUSH1 0x44 DUP3 ADD MSTORE SWAP1 MLOAD SWAP1 DUP2 SWAP1 SUB PUSH1 0x64 ADD SWAP1 REVERT JUMPDEST PUSH1 0x3 DUP1 SLOAD PUSH1 0x1 SWAP2 SWAP1 PUSH1 0xFF PUSH1 0xA0 SHL NOT AND PUSH1 0x1 PUSH1 0xA0 SHL DUP4 PUSH2 0x30D JUMP JUMPDEST PUSH1 0x2 SLOAD PUSH1 0x1 PUSH1 0x1 PUSH1 0xA0 SHL SUB AND DUP2 JUMP INVALID LOG2 PUSH5 0x6970667358 0x22 SLT KECCAK256 0xC3 0x49 GAS 0xA5 SAR PUSH23 0xE8B36B65AADABBCFCE39D9FA73396E2D790E4EBAD157E1 NUMBER 0xB3 MSTORE PUSH5 0x736F6C6343 STOP MOD STOP STOP CALLER ",
  "sha1": "083b5a05e7f72eec8adc581fbf00e45dae0cf45c",
  "source": "// SPDX-License-Identifier: MIT\n\npragma solidity 0.6.0;\n\nimport \"@chainlink/contracts/src/v0.6/interfaces/AggregatorV3Interface.sol\";\n\n\n// This one for now to track what each investor/ I will look at the implementation later\n\n\ncontract Sukuk{\n    mapping(address => uint256) public addressToAmountFunded;\n    address payable[] public investors;\n    address public  admin;\n    AggregatorV3Interface public priceFeed;\n\n    //Sukuk State\n    enum SUKUK_STATE{\n        OPEN,\n        ISSUE,\n        CLOSEED,\n        COOLDOWN, // This state will be when the contract is in effect however it doesn't have any tasks to excute\n        REDEEM_PERIOD,\n        TERM_1,\n        TERM_2\n    }\n    SUKUK_STATE public sukuk_state;\n\n\n\n\n\n    //added an argument to constructor for testing\n    constructor(\n        address _priceFeed\n      ) \n    public {\n        priceFeed = AggregatorV3Interface(_priceFeed);\n        // Admin will be the contract sender for now\n        admin = msg.sender;\n\n    }\n\n\n\n\n    function     startSukuk( ) public onlyAdmin{\n\n\n        sukuk_state = SUKUK_STATE.OPEN;\n\n    }\n    \n\n\n\n\n    function  IssueSukuk( ) public onlyAdmin{\n        require(\n            sukuk_state == SUKUK_STATE.OPEN,\n            \"Can't issue new suks yet\"\n        );\n\n        sukuk_state = SUKUK_STATE.ISSUE;\n\n    }\n\n    function EndIssue() public onlyAdmin{\n        require(\n            sukuk_state == SUKUK_STATE.ISSUE,\n            \"Test\"\n        );\n\n        sukuk_state = SUKUK_STATE.COOLDOWN;\n    }\n\n    function startRedeem() public onlyAdmin{\n        require(\n            sukuk_state == SUKUK_STATE.COOLDOWN,\n            \"Test\"\n        );\n\n        sukuk_state = SUKUK_STATE.REDEEM_PERIOD;\n    }\n\n\n\n\n\n    \n\n    function purchase_suk(uint256 _number_of_sukuk) public payable{\n\n\n\n        // Right now it only tracks the amount and address only.\n        addressToAmountFunded[msg.sender] += msg.value;\n        investors.push(payable(msg.sender));\n    }\n\n\n    modifier onlyAdmin(){\n        require(msg.sender == admin);\n        _;\n    }\n\n    function withdraw() public payable onlyAdmin{\n        msg.sender.transfer(address(this).balance);\n\n        for (\n            uint256 funderIndex = 0;\n            funderIndex < investors.length;\n            funderIndex++\n        ) {\n            address funder = investors[funderIndex];\n            addressToAmountFunded[funder] = 0;\n        }\n\n    }\n\n    //function redeem() public payable{}\n\n\n}",
  "sourcePath": "contracts/Purchese.sol",
  "type": "contract"
}